:020000040800F2
:1000000000500020D51C0008E91B0008EB1B00086D
:10001000ED1B0008EF1B0008F11B000800000000AA
:10002000000000000000000000000000F31B0008BA
:10003000F51B000800000000F71B0008F91B000872
:100040001D1D00081D1D00081D1D00081D1D0008A8
:100050001D1D00081D1D00081D1D00081D1D000898
:100060001D1D00081D1D00081D1D00081D1D000888
:100070001D1D00081D1D00081D1D00081D1D000878
:100080001D1D00081D1D00081D1D00081D1D000868
:100090001D1D00081D1D00081D1D00081D1D000858
:1000A0001D1D00081D1D00081D1D00081D1D000848
:1000B000151C00081D1D00081D1D00081D1D000841
:1000C0001D1D00081D1D00081D1D00081D1D000828
:1000D0001D1D00081D1D00081D1D00081D1D000818
:1000E000251C00081D1D00081D1D00080000000043
:1000F0000000000000000000000000000000000000
:0C01000000000000000000005FF808F1A3
:1001100081F0004102E000BF83F0004330B54FEAB8
:1001200041044FEA430594EA050F08BF90EA020F25
:100130001FBF54EA000C55EA020C7FEA645C7FEAB8
:10014000655C00F0E2804FEA5454D4EB5555B8BFDB
:100150006D420CDD2C4480EA020281EA030382EA4C
:10016000000083EA010180EA020281EA0303362DDE
:1001700088BF30BD11F0004F4FEA01314FF4801CB1
:100180004CEA113102D0404261EB410113F0004FC3
:100190004FEA03334CEA133302D0524263EB43037A
:1001A00094EA050F00F0A780A4F10104D5F1200E18
:1001B0000DDB02FA0EFC22FA05F2801841F1000173
:1001C00003FA0EF2801843FA05F359410EE0A5F147
:1001D00020050EF1200E012A03FA0EFC28BF4CF078
:1001E000020C43FA05F3C01851EBE37101F000452E
:1001F00007D54FF0000EDCF1000C7EEB00006EEB3B
:100200000101B1F5801F1BD3B1F5001F0CD34908C4
:100210005FEA30004FEA3C0C04F101044FEA44521B
:1002200012F5800F80F09A80BCF1004F08BF5FEAA2
:10023000500C50F1000041EB045141EA050130BD82
:100240005FEA4C0C404141EB0101013C28BFB1F594
:10025000801FE9D291F0000F04BF01460020B1FADF
:1002600081F308BF2033A3F10B03B3F120020CDAB2
:100270000C3208DD02F1140CC2F10C0201FA0CF090
:1002800021FA02F10CE002F11402D8BFC2F1200CF5
:1002900001FA02F120FA0CFCDCBF41EA0C019040AB
:1002A000E41AA2BF01EB0451294330BD6FEA0404F4
:1002B0001F3C1CDA0C340EDC04F11404C4F12002DF
:1002C00020FA04F001FA02F340EA030021FA04F3F1
:1002D00045EA030130BDC4F10C04C4F1200220FA48
:1002E00002F001FA04F340EA0300294630BD21FA86
:1002F00004F0294630BD94F0000F83F4801306BF4C
:1003000081F480110134013D4EE77FEA645C18BF3F
:100310007FEA655C29D094EA050F08BF90EA020FD6
:1003200005D054EA000C04BF1946104630BD91EACE
:10033000030F1EBF0021002030BD5FEA545C05D1D1
:100340004000494128BF41F0004130BD14F5800410
:100350003CBF01F5801130BD01F0004545F0FE4184
:1003600041F470014FF0000030BD7FEA645C1ABFB9
:10037000194610467FEA655C1CBF0B46024650EAF0
:10038000013406BF52EA033591EA030F41F400211C
:1003900030BD00BF90F0000F04BF0021704730B5A2
:1003A0004FF4806404F132044FF000054FF0000177
:1003B00050E700BF90F0000F04BF0021704730B538
:1003C0004FF4806404F1320410F0004548BF40420D
:1003D0004FF000013EE700BF42004FEAE2014FEA62
:1003E00031014FEA02701FBF12F07F4393F07F4F3D
:1003F00081F06051704732F07F4208BF704793F040
:100400007F4F04BF41F40021704730B54FF4607452
:1004100001F0004521F000411CE700BF50EA010255
:1004200008BF704730B54FF000050AE050EA0102FE
:1004300008BF704730B511F0004502D5404261EB6E
:1004400041014FF4806404F132045FEA915C3FF4AF
:10045000D8AE4FF003025FEADC0C18BF03325FEA4C
:10046000DC0C18BF033202EBDC02C2F1200300FAFD
:1004700003FC20FA02F001FA03FE40EA0E0021FA22
:1004800002F11444BDE600BF70B54FF0FF0C4CF410
:10049000E06C1CEA11541DBF1CEA135594EA0C0FC2
:1004A00095EA0C0F00F0DEF82C4481EA030621EAFD
:1004B0004C5123EA4C5350EA013518BF52EA033538
:1004C00041F4801143F4801338D0A0FB02CE4FF0EA
:1004D0000005E1FB02E506F00042E0FB03E54FF01A
:1004E0000006E1FB03569CF0000F18BF4EF0010E12
:1004F000A4F1FF04B6F5007F64F5407404D25FEA0E
:100500004E0E6D4146EB060642EAC62141EA5551C0
:100510004FEAC52040EA5E504FEACE2EB4F1FD0C02
:1005200088BFBCF5E06F1ED8BEF1004F08BF5FEA80
:10053000500E50F1000041EB045170BD06F0004632
:1005400046EA010140EA020081EA0301B4EB5C04DF
:10055000C2BFD4EB0C0541EA045170BD41F48011D7
:100560004FF0000E013C00F3AB8014F1360FDEBFFC
:10057000002001F0004170BDC4F10004203C35DAD8
:100580000C341BDC04F11404C4F1200500FA05F35B
:1005900020FA04F001FA05F240EA020001F00042FC
:1005A00021F0004110EBD37021FA04F642EB060172
:1005B0005EEA430E08BF20EAD37070BDC4F10C049C
:1005C000C4F1200500FA04F320FA05F001FA04F260
:1005D00040EA020001F0004110EBD37041F100014C
:1005E0005EEA430E08BF20EAD37070BDC4F1200557
:1005F00000FA05F24EEA020E20FA04F301FA05F2BF
:1006000043EA020321FA04F001F0004121FA04F266
:1006100020EA020000EBD3705EEA430E08BF20EA36
:10062000D37070BD94F0000F0FD101F00046400070
:1006300041EB010111F4801F08BF013CF7D041EAF2
:10064000060195F0000F18BF704703F000465200F6
:1006500043EB030313F4801F08BF013DF7D043EAC7
:100660000603704794EA0C0F0CEA135518BF95EA7D
:100670000C0F0CD050EA410618BF52EA4306D1D104
:1006800081EA030101F000414FF0000070BD50EA23
:10069000410606BF1046194652EA430619D094EAAD
:1006A0000C0F02D150EA013613D195EA0C0F05D197
:1006B00052EA03361CBF104619460AD181EA0301EB
:1006C00001F0004141F0FE4141F470014FF00000A3
:1006D00070BD41F0FE4141F4780170BD70B54FF03E
:1006E000FF0C4CF4E06C1CEA11541DBF1CEA1355BE
:1006F00094EA0C0F95EA0C0F00F0A7F8A4EB0504A0
:1007000081EA030E52EA03354FEA013100F0888096
:100710004FEA03334FF0805545EA131343EA12635F
:100720004FEA022245EA111545EA10654FEA002614
:100730000EF000419D4208BF964244F1FD0404F5CD
:10074000407402D25B084FEA3202B61A65EB030529
:100750005B084FEA32024FF480104FF4002CB6EBE6
:10076000020E75EB030E22BFB61A754640EA0C0066
:100770005B084FEA3202B6EB020E75EB030E22BFA6
:10078000B61A754640EA5C005B084FEA3202B6EBE7
:10079000020E75EB030E22BFB61A754640EA9C00A6
:1007A0005B084FEA3202B6EB020E75EB030E22BF76
:1007B000B61A754640EADC0055EA060E18D04FEA34
:1007C000051545EA16754FEA06164FEAC30343EAD4
:1007D00052734FEAC2025FEA1C1CC0D111F4801FA1
:1007E0000BD141EA00014FF000004FF0004CB6E79A
:1007F00011F4801F04BF01430020B4F1FD0C88BF39
:10080000BCF5E06F3FF6AFAEB5EB030C04BFB6EB43
:10081000020C5FEA500C50F1000041EB045170BD36
:100820000EF0004E4EEA113114EB5C04C2BFD4EB63
:100830000C0541EA045170BD41F480114FF0000EE7
:10084000013C90E645EA060E8DE60CEA135594EA63
:100850000C0F08BF95EA0C0F3FF43BAF94EA0C0F66
:100860000AD150EA01347FF434AF95EA0C0F7FF4DB
:1008700025AF104619462CE795EA0C0F06D152EA2F
:1008800003353FF4FDAE1046194622E750EA410613
:1008900018BF52EA43067FF4C5AE50EA41047FF424
:1008A0000DAF52EA43057FF4EBAE12E74FEA410287
:1008B000B2F1E04324BFB3F5001CDCF1FE5C0DD9BE
:1008C00001F0004C4FEAC0024CEA5070B2F1004F08
:1008D00040EB830008BF20F00100704711F0804F0B
:1008E00021D113F13872BCBF01F00040704741F4D0
:1008F00080114FEA5252C2F11802C2F1200C10FAD4
:100900000CF320FA02F018BF40F001004FEAC123B7
:100910004FEAD32303FA0CFC40EA0C0023FA02F35B
:100920004FEA4303CCE77FEA625307D150EA013331
:100930001EBF4FF0FE4040F44000704701F0004001
:1009400040F0FE4040F40000704700BF80F00040DF
:1009500002E000BF81F0004142001FBF5FEA410397
:1009600092EA030F7FEA226C7FEA236C6AD04FEA97
:100970001262D2EB1363C1BFD218414048404140DC
:10098000B8BF5B42192B88BF704710F0004F40F48E
:10099000000020F07F4018BF404211F0004F41F4AA
:1009A000000121F07F4118BF494292EA030F3FD076
:1009B000A2F1010241FA03FC10EB0C00C3F1200389
:1009C00001FA03F100F0004302D5494260EB400018
:1009D000B0F5000F13D3B0F1807F06D340084FEA83
:1009E000310102F10102FE2A51D2B1F1004F40EB78
:1009F000C25008BF20F0010040EA030070474900E0
:100A000040EB0000013A28BFB0F5000FEDD2B0FA7C
:100A100080FCACF1080CB2EB0C0200FA0CF0AABF9F
:100A200000EBC25052421843BCBFD040184370473D
:100A300092F0000F81F4000106BF80F40000013243
:100A4000013BB5E74FEA41037FEA226C18BF7FEA1A
:100A5000236C21D092EA030F04D092F0000F08BF5C
:100A60000846704790EA010F1CBF0020704712F043
:100A70007F4F04D1400028BF40F00040704712F182
:100A800000723CBF00F50000704700F0004343F0E7
:100A9000FE4040F4000070477FEA226216BF08461D
:100AA0007FEA23630146420206BF5FEA412390EAE0
:100AB000010F40F4800070474FF0000304E000BFD6
:100AC00010F0004348BF40425FEA000C08BF704787
:100AD00043F0964301464FF000001CE050EA01024B
:100AE00008BF70474FF000030AE000BF50EA010260
:100AF00008BF704711F0004302D5404261EB41014D
:100B00005FEA010C02BF84460146002043F0B64371
:100B100008BFA3F18053A3F50003BCFA8CF2083A96
:100B2000A3EBC25310DB01FA02FC634400FA02FC9F
:100B3000C2F12002BCF1004F20FA02F243EB0200A6
:100B400008BF20F00100704702F1200201FA02FC08
:100B5000C2F1200250EA4C0021FA02F243EB0200FB
:100B600008BF20EADC7070474FF0FF0C1CEAD0523F
:100B70001EBF1CEAD15392EA0C0F93EA0C0F6FD000
:100B80001A4480EA010C400218BF5FEA41211ED0DE
:100B90004FF0006343EA501043EA5111A0FB0131CA
:100BA0000CF00040B1F5000F3EBF490041EAD3719F
:100BB0005B0040EA010062F17F02FD2A1DD8B3F11B
:100BC000004F40EBC25008BF20F00100704790F08A
:100BD000000F0CF0004C08BF49024CEA502040EADC
:100BE00051207F3AC2BFD2F1FF0340EAC2507047A2
:100BF00040F400004FF00003013A5DDC12F1190FE0
:100C0000DCBF00F000407047C2F10002410021FA51
:100C100002F1C2F1200200FA02FC5FEA310040F169
:100C2000000053EA4C0308BF20EADC70704792F0E2
:100C3000000F00F0004C02BF400010F4000F013A1A
:100C4000F9D040EA0C0093F0000F01F0004C02BF15
:100C5000490011F4000F013BF9D041EA0C018FE784
:100C60000CEAD15392EA0C0F18BF93EA0C0F0AD08A
:100C700030F0004C18BF31F0004CD8D180EA0100B0
:100C800000F00040704790F0000F17BF90F0004F49
:100C9000084691F0000F91F0004F14D092EA0C0F2B
:100CA00001D142020FD193EA0C0F03D14B0218BFBE
:100CB000084608D180EA010000F0004040F0FE4004
:100CC00040F40000704740F0FE4040F440007047A0
:100CD0004FF0FF0C1CEAD0521EBF1CEAD15392EA1F
:100CE0000C0F93EA0C0F69D0A2EB030280EA010C0F
:100CF00049024FEA402037D04FF0805343EA1111A8
:100D000043EA10130CF000408B4238BF5B0042F105
:100D10007D024FF4000C8B4224BF5B1A40EA0C00AA
:100D2000B3EB510F24BFA3EB510340EA5C00B3EBDC
:100D3000910F24BFA3EB910340EA9C00B3EBD10FCA
:100D400024BFA3EBD10340EADC001B0118BF5FEA1C
:100D50001C1CE0D1FD2A3FF650AF8B4240EBC25045
:100D600008BF20F0010070470CF0004C4CEA502006
:100D70007F32C2BFD2F1FF0340EAC250704740F455
:100D800000004FF00003013A37E792F0000F00F047
:100D9000004C02BF400010F4000F013AF9D040EAC5
:100DA0000C0093F0000F01F0004C02BF490011F459
:100DB000000F013BF9D041EA0C0195E70CEAD15351
:100DC00092EA0C0F08D142027FF47DAF93EA0C0F38
:100DD0007FF470AF084676E793EA0C0F04D14B021C
:100DE0003FF44CAF08466EE730F0004C18BF31F0CE
:100DF000004CCAD130F000427FF45CAF31F00043C8
:100E00007FF43CAF5FE700BF4FEA4002B2F1FE4F14
:100E10000FD34FF09E03B3EB12620DD94FEA0023BC
:100E200043F0004310F0004F23FA02F018BF404295
:100E300070474FF00000704712F1610F01D142027C
:100E400005D110F0004008BF6FF0004070474FF030
:100E50000000704742000ED2B2F1FE4F0BD34FF0AC
:100E60009E03B3EB126209D44FEA002343F0004320
:100E700023FA02F070474FF00000704712F1610F43
:100E800001D1420202D14FF0FF3070474FF0000015
:100E9000704700BF844641EA000313F0030349D1C1
:100EA000403A23D30B6803604B6843608B688360D0
:100EB000CB68C3600B6903614B6943618B698361D4
:100EC000CB69C3610B6A03624B6A43628B6A8362BC
:100ED000CB6AC3620B6B03634B6B43638B6B8363A4
:100EE000CB6BC36340304031403ADBD230320BD35E
:100EF0000B6803604B6843608B688360CB68C3609A
:100F000010301031103AF3D20C3205D351F8043BB3
:100F100040F8043B043AF9D2043208D0D2071CBF8F
:100F200011F8013B00F8013B01D30B8803806046B8
:100F3000704700BF082A13D38B07B1D010F003030A
:100F4000AED0C3F10403D21ADB071CBF11F8013B7A
:100F500000F8013BA4D331F8023B20F8023B9FE7A5
:100F6000043AD9D3013A11F8013B00F8013BF9D218
:100F70000B7803704B7843708B78837060467047B2
:100F80004FF0FF3C06E000BF4FF0010C02E000BF55
:100F90004FF0010C4DF804CD4FEA410C7FEA6C5C38
:100FA0004FEA430C18BF7FEA6C5C1BD001B050EADB
:100FB000410C0CBF52EA430C91EA030F02BF90EAC6
:100FC000020F0020704710F1000F91EA030F58BF85
:100FD000994208BF90422CBFD8176FEAE37040F0E7
:100FE000010070474FEA410C7FEA6C5C02D150EA85
:100FF000013C07D14FEA430C7FEA6C5CD6D152EA40
:10100000033CD3D05DF8040B704700BF8446104604
:1010100062468C461946634600E000BF01B5FFF703
:10102000B7FF002848BF10F1000F01BD4DF808EDD3
:10103000FFF7F4FF0CBF012000205DF808FB00BFA4
:101040004DF808EDFFF7EAFF34BF012000205DF8FE
:1010500008FB00BF4DF808EDFFF7E0FF94BF01204B
:1010600000205DF808FB00BF4DF808EDFFF7CEFF4C
:1010700094BF012000205DF808FB00BF4DF808ED8B
:10108000FFF7C4FF34BF012000205DF808FB00BF5C
:101090004FEA410C7FEA6C5C02D150EA013C0AD174
:1010A0004FEA430C7FEA6C5C02D152EA033C02D166
:1010B0004FF0000070474FF0010070474FEA4102C7
:1010C00012F5001215D211D56FF47873B3EB62529A
:1010D00012D94FEAC12343F0004343EA505311F0C1
:1010E000004F23FA02F018BF404270474FF0000053
:1010F000704750EA013005D111F0004008BF6FF091
:10110000004070474FF00000704700BF0348044B99
:10111000834202D0034B03B118477047C406002036
:10112000C4060020000000000548064B1B1AD90F1A
:1011300001EBA301491002D0034B03B118477047DC
:10114000C4060020C40600200000000010B5064CB4
:10115000237843B9FFF7DAFF044B13B10448AFF328
:1011600000800123237010BDC40600200000000091
:101170000095000808B5054B1BB105490548AFF3BC
:101180000080BDE80840FFF7CFBF00BF00000000AF
:10119000C80600200095000882B0ADF804008DF864
:1011A0000610064A92F828300133DBB282F8283064
:1011B000013B019942F8231002B07047E00600207D
:1011C00008B500228021024800F08AFF08BD00BF58
:1011D0000008014008B501228021024800F080FF8C
:1011E00008BD00BF0008014010B50446FFF7F2FF3C
:1011F000052C08D8DFE804F003080D1A2734012174
:101200000A20FFF7C9FF10BD01213220FFF7C4FFFC
:10121000F9E701210A20FFF7BFFF00216420FFF753
:10122000BBFF01210A20FFF7B7FFECE701210A20ED
:10123000FFF7B2FF00216420FFF7AEFF012132204B
:10124000FFF7AAFFDFE701213220FFF7A5FF00210A
:101250006420FFF7A1FF01210A20FFF79DFFD2E7DD
:1012600001213220FFF798FF00216420FFF794FF4F
:1012700001213220FFF790FFC5E7000010B50446BA
:10128000042000F00FFE014B1C6010BD0C07002075
:1012900010B44FF0E02254690B4B1B6800FB03FCB9
:1012A0009369002104E0E01A02441144614509D227
:1012B0001A464FF0E0239B699A42FAD0F3D9D21A2A
:1012C0001144F3E710BC70470C07002038B50D4CF3
:1012D000A4FB0034A3091C4603EB8313C01A85B298
:1012E00004E04FF6E850FFF7D3FF013C002CF8D1A3
:1012F00005B938BD4FF47A7005FB00F0FFF7C8FF61
:10130000F7E700BFFDC00FFC08B50122022102482B
:1013100000F0E6FE08BD00BF00080140000000002C
:10132000B0F5805F00D070474D4B9B7A3BB94FF0D2
:10133000E0239A694A4B1A6001229A727047012B86
:10134000F1D12DE9F041464B00229A724FF0E02294
:1013500094695C601D89BDB91D461868001BFFF7C4
:10136000ABFB4049FFF700FC3F49FFF7B1FC686168
:101370003B4C6069FFF748FD01463C4801F0B0FF77
:1013800000232381BDE8F081012D38D0DFF8D08023
:10139000D8F80000FEF7FEFF29A3D3E90023FEF7EB
:1013A000BDFE06460F462046FEF7F4FF02460B46FA
:1013B00030463946FEF7B0FEFFF778FAFFF70CF833
:1013C00021A3D3E90023FFF789F906460F46681EDB
:1013D000FEF7F0FF1EA3D3E90023FFF755F80246FE
:1013E0000B4630463946FEF799FE1BA3D3E900238E
:1013F000FFF74AF8FFF75AFAC8F81400B8E7184D93
:101400002868FEF7C7FF0EA3D3E90023FEF786FE88
:1014100006460F462046FEF7BDFF02460B46304605
:101420003946FEF779FEFFF741FA0E49FFF79CFBBC
:101430000D49FFF74DFC68619AE700BFAFF30080EC
:1014400000000000F093F14000000000882A914164
:10145000FCA9F1D24D62503F00000000009AE0402C
:101460001007002000D004474054894C1C95000808
:1014700010B5084C01224FF40041204600F030FE28
:101480003220FFF705FF00224FF40041204600F014
:1014900027FE10BD00080140024B9881D88101222F
:1014A0001A747047100700202DE9F04389B000241A
:1014B0000494059406940794404B9A6942F01002F4
:1014C0009A619A6902F010020092009A9A6942F0B9
:1014D00020029A619A6902F020020192019A9A69A7
:1014E00042F004029A619A6902F004020292029A9E
:1014F0009A6942F008029A619B6903F0080303931A
:10150000039B2F4E224648F28301304600F0E8FD4F
:10151000DFF8B08022464FF44C71404600F0E0FD09
:101520004FF4604304930594069404A9264800F000
:10153000C9FC48F28103049301270597069402250C
:10154000079504A9304600F0BDFC04950597069761
:10155000079504A9304600F0B5FC78230493059460
:10156000069404A9304600F0ADFC4FF48059CDF844
:1015700010900594069404A9404600F0A3FCCDF811
:101580001090124B0593069504A9304600F09AFC82
:101590004FF44C73049305970694079504A94046AD
:1015A00000F090FC22462146282000F049FC28202B
:1015B00000F056FC09B0BDE8F08300BF0010024007
:1015C00000080140000C01400010014000003110F3
:1015D00072B6FEE708B50A480A4B03604FF4E133E0
:1015E000436000238360C36003610C224261836116
:1015F000C36101F0F5FC00B908BDFFF7E9FF00BFCA
:10160000280700200038014000B58BB00023089364
:10161000099301930293039304930593069307930D
:101620001B481C4A026047224260836040F2E73256
:10163000C26003618023836101F090FAF8B900234E
:101640000893099308A9124801F0DCFBC8B960238C
:101650000193002202920392059201A90C4801F025
:10166000D7FA80B904220DEB0201094801F0D0FA43
:1016700058B9074800F01EFA0BB05DF804FBFFF7FD
:10168000A7FFFFF7A5FFFFF7A3FFFFF7A1FF00BF2D
:10169000700700200008004010B592B0002410949C
:1016A000119409940A940B940C940D940E940F9435
:1016B0002022214601A801F06FFE2148214B036042
:1016C00047234360846044F61F63C3600461446140
:1016D000846101F043FA002829D10023109311936B
:1016E00010A9174801F08EFB18BB60230993002353
:1016F0000A930B930D930E930F930C2209A9104894
:1017000001F086FAB8B9002301930293039304937E
:1017100005934FF400520692089301A9084801F07E
:10172000A7FB50B9064800F0C5F912B010BDFFF78D
:101730004FFFFFF74DFFFFF74BFFFFF749FF00BFDC
:1017400048080020002C014000B58BB0002308930E
:1017500009930193029303930493059306930793CC
:101760001A481B4A026047224260836040F2E73217
:10177000C2600361836101F0F1F9F8B900230893B5
:10178000099308A9114801F03DFBC8B960230193F2
:101790000023029303930593082201A90B4801F04B
:1017A00037FA78B90C2201A9084801F031FA58B982
:1017B000064800F07FF90BB05DF804FBFFF708FF67
:1017C000FFF706FFFFF704FFFFF702FFB80700204F
:1017D0000004004000B587B00023029303930493F4
:1017E00005930093019314484FF080420260482211
:1017F000426083604FF47A72C2600361836101F0DA
:1018000081F990B94FF48053029302A90A4801F07C
:1018100079FA60B90023009301936946064801F004
:10182000F1FA30B907B05DF804FBFFF7D1FEFFF71E
:10183000CFFEFFF7CDFE00BF0008002000B591B03D
:101840002822002106A801F0A7FD0023019302939E
:10185000039304930593012206924FF48033079378
:101860000A9202220D920E934FF4E0130F9306A8F2
:1018700000F060FC80B90F23019302210291002344
:1018800003934FF480620492059301A800F084FE54
:1018900020B911B05DF804FBFFF79AFEFFF798FE40
:1018A00000B583B000F062FAFFF7C8FF4820FFF7E9
:1018B000E5FCFFF7F9FDFFF78DFEFFF7A5FEFFF74B
:1018C000EBFEFFF741FFFFF785FFFFF71DFD0B4B19
:1018D0001B68ADF804301B0C8DF806300122114650
:1018E000074800F0FDFB00F019F84FF4FA70FFF71D
:1018F000D3FD4FF4FA60FFF7E9FCFAE7189500080A
:101900000008014010B514464FF0FF3392B2024870
:1019100001F096FB204610BD2807002008B50248BC
:1019200000F0C0FF08BD00BF0008002008B5224B32
:101930001B7C012B13D0214B93F8283043B1591E47
:101940001E4A32F82120BAB1013A1C4B23F821205B
:101950001B4A1388013B9BB2138003B308BD164A90
:10196000D389013B9BB2D381002BE4D113469289EA
:10197000DA81FFF77DFDDEE7013BDBB20F4A82F83B
:1019800028304BB1013B0D4A02EB83039B78002BBF
:10199000DED1FFF715FCDBE7FFF712FCD8E70949BA
:1019A000054B5869FFF7E0F8FFF754FA044B18802D
:1019B0000020FFF719FCD1E710070020E006002007
:1019C000000000200000204182B00E4B9A6942F0D6
:1019D00001029A619A6902F001020092009ADA69A2
:1019E00042F08052DA61DB6903F080530193019B7E
:1019F000054A536823F0E06343F00073536002B07C
:101A0000704700BF001002400000014084B003682E
:101A1000154A934207D0154A93420FD0144A934275
:101A200017D004B07047134B9A6942F400629A6170
:101A30009B6903F400630193019BF2E70D4BDA69A4
:101A400042F00202DA61DB6903F002030293029BB7
:101A5000E7E7084BDA6942F00402DA61DB6903F078
:101A600004030393039BDCE7002C014000040040C7
:101A700000080040001002400368B3F1804F00D01E
:101A8000704700B583B003F50433DA6942F0010210
:101A9000DA61DB6903F001030193019B0022052158
:101AA0001C2000F0CDF91C2000F0DAF903B05DF83D
:101AB00004FB000000B589B000230493059306934E
:101AC00007930368244A934208D0244A93421AD0C9
:101AD000234A93422BD009B05DF804FB214B9A694D
:101AE00042F004029A619B6903F004030193019B95
:101AF0004FF40063049302230593079304A91A4843
:101B000000F0E0F9E7E7174B9A6942F008029A61A2
:101B10009B6903F008030293029B032304930223AF
:101B20000593079304A9114800F0CCF9D3E70D4BB6
:101B30009A6942F008029A619B6903F008030393D3
:101B4000039BC023049302230593079304A907482A
:101B500000F0B8F9BFE700BF002C014000040040CE
:101B6000000800400010024000080140000C014045
:101B700010B586B000230293039304930593026883
:101B8000174B9A4201D006B010BD03F558439A692D
:101B900042F480429A619A6902F480420092009A6B
:101BA0009A6942F004029A619B6903F0040301936D
:101BB000019B4FF4007302930223039303230593C5
:101BC000084C02A9204600F07DF94FF4806302938F
:101BD00000230393049302A9204600F073F9D2E78F
:101BE0000038014000080140FEE7FEE7FEE7FEE79F
:101BF000FEE770477047704708B5054B9B7A1BB1ED
:101C0000034A13890133138100F0C2F808BD00BFF5
:101C10001007002008B5024800F07CFE08BD00BF98
:101C20000008002008B54FF4805000F05FFA08BDAE
:101C30000120704708B501F053FC162303604FF0F4
:101C4000FF3008BD08B54FF0FF31FFF7F3FFFEE7A7
:101C500070B50C461646002506E0AFF3008021461D
:101C600001F8010B01350C46B542F6DB304670BD7C
:101C70004FF0FF3070474FF400534B600020704727
:101C8000012070470020704710B503460C4A0D49EB
:101C90000D48006840B10C4800680344521A934252
:101CA00006D8094A136010BD0748084C0460F2E7E3
:101CB00001F016FC0C2303604FF0FF30F3E700BF88
:101CC000005000200004000090080020B00B00200D
:101CD00070470000FFF7FCFF0B480C490C4A00233B
:101CE00002E0D458C4500433C4188C42F9D3094AD2
:101CF000094C002301E013600432A242FBD301F03F
:101D0000F5FBFFF7CDFD704700000020C406002062
:101D100050990008C4060020AC0B0020FEE700002C
:101D200010B504460E4B1A784FF47A73B3FBF2F3F6
:101D30000C4A1068B0FBF3F000F0A0F868B90F2C63
:101D400001D901200AE0002221464FF0FF3000F0C7
:101D500077F8054B1C60002000E0012010BD00BF9B
:101D600008000020040000200C00002008B5074AED
:101D7000136843F010031360032000F04FF80F20A6
:101D8000FFF7CEFFFFF720FE002008BD0020024035
:101D9000034A1168034B1B780B441360704700BF64
:101DA0009408002008000020014B1868704700BF0D
:101DB00094080020002808DB0901C9B200F1604046
:101DC00000F5614080F80013704700F00F00090132
:101DD000C9B2014B1954704714ED00E000B500F092
:101DE0000700C0F1070CBCF1040F28BF4FF0040C32
:101DF000031D062B0FD9C31E4FF0FF3E0EFA0CF049
:101E000021EA000199400EFA03FE22EA0E0241EA9D
:101E100002005DF804FB0023EEE70000074AD368E8
:101E200023F4E0631B041B0C000200F4E060034396
:101E300043F0BF6343F40033D360704700ED00E02C
:101E400010B50446054BD868C0F30220FFF7C6FF63
:101E500001462046FFF7AEFF10BD00BF00ED00E0D9
:101E6000002807DB00F01F02400901239340024ACB
:101E700042F82030704700BF00E100E00138B0F1C7
:101E8000807F0BD24FF0E0235861054AF02182F8A1
:101E900023100020986107221A61704701207047C3
:101EA00000ED00E0042806D04FF0E022136923F093
:101EB0000403136170474FF0E022136943F00403F9
:101EC0001361704770B582B00024A446A2E07E4D35
:101ED000AB4210D007D97D4DAB420CD005F5803513
:101EE000AB4208D013E0A5F58015AB4203D005F551
:101EF0007025AB4207D18B68002B55D0012B4ED0FB
:101F00004261082403E0A5F58015AB42F3D0BEF191
:101F1000FF0F4BD806464FEA8C0233680F259540D9
:101F200023EA050304FA02F2134333604B6813F00B
:101F3000805F6DD0664B9A6942F001029A619B699D
:101F400003F001030193019B4FEA9C02951C614B36
:101F500053F825600CF00305AD000F23AB4026EAD3
:101F600003065D4B984228D003F58063984200F049
:101F70008D8003F58063984200F08A8003F58063CA
:101F8000984218D0042319E0CC68C0E7CC68043428
:101F9000BDE7CC680834BAE7CC680C34B7E7026117
:101FA0000824B4E70024B2E70424B0E7061DACF12E
:101FB00008029200B1E7032300E00023AB40334363
:101FC0000232444D45F822304B6813F4801F61D033
:101FD000424A936843EA0E0393604B6813F4001F70
:101FE0005ED03E4AD36843EA0E03D3604B6813F4D5
:101FF000003F5BD0394A536843EA0E0353604B6895
:1020000013F4803F58D0354A136843EA0E03136037
:102010000CF1010C0B6833FA0CF253D0012202FAD6
:102020000CF203EA020E32EA0303F1D14B68122BE1
:102030003FF64DAF122B3FF66AAF01A555F823F0DE
:10204000F71E0008891F0008931F0008A51F00083D
:102050000F1F00080F1F00080F1F00080F1F0008A8
:102060000F1F00080F1F00080F1F00080F1F000898
:102070000F1F00080F1F00080F1F00080F1F000888
:102080000F1F00088D1F0008991F0008012395E706
:10209000022393E7114A936823EA0E0393609CE7B7
:1020A0000E4AD36823EA0E03D3609FE70B4A5368B6
:1020B00023EA0E035360A2E7084A136823EA0E03DB
:1020C0001360A5E702B070BD0000221000003110BF
:1020D00000100240000001400008014000040140DF
:1020E0000AB10161704709040161704708B5054BE9
:1020F0005B69034200D108BD024B5861FFF710F93C
:10210000F9E700BF0004014082B0084B1B68084A91
:10211000A2FB03235B0A00FB03F3019300BF019BB7
:102120005A1E0192002BF9D102B070470400002022
:10213000D34D6210002800F0F18170B582B00446E2
:10214000036813F0010F2CD0994B5B6803F00C036C
:10215000042B1DD0964B5B6803F00C03082B12D0A8
:102160006368B3F5803F41D0002B55D103F1804324
:1021700003F504331A6822F480321A601A6822F4D4
:1021800080221A6037E08A4B5B6813F4803FE7D007
:10219000874B1B6813F4003F03D06368002B00F0EB
:1021A000BF81236813F0020F75D0814B5B6813F079
:1021B0000C0F5FD07E4B5B6803F00C03082B54D0F0
:1021C0002369002B00F08A807A4B01221A60FFF706
:1021D000EBFD0546764B1B6813F0020F75D1FFF738
:1021E000E3FD401B0228F5D903209EE1704A1368E5
:1021F00043F480331360636843B3FFF7D5FD0546AE
:102200006B4B1B6813F4003FCBD1FFF7CDFD401B98
:102210006428F5D9032088E1B3F5A02F09D0644BD9
:102220001A6822F480321A601A6822F480221A6036
:10223000E1E703F18043A3F53C331A6842F48022BE
:102240001A601A6842F480321A60D4E7FFF7ACFDD6
:102250000546574B1B6813F4003FA2D0FFF7A4FDBF
:10226000401B6428F5D903205FE1514B5B6813F4F0
:10227000803FA5D14E4B1B6813F0020F03D023699A
:10228000012B40F04F814A4A136823F0F80361693B
:1022900043EAC1031360236813F0080F33D0A36926
:1022A000002B5CD0434B0122C3F88024FFF77CFD58
:1022B00005463F4B5B6A13F0020F21D1FFF774FD17
:1022C000401B0228F5D903202FE1394A136823F077
:1022D000F803616943EAC1031360DCE7354B002270
:1022E0001A60FFF761FD0546314B1B6813F0020FC2
:1022F000D1D0FFF759FD401B0228F5D9032014E186
:102300000120FFF701FF236813F0040F00F096800F
:10231000274BDB6913F0805F34D1254BDA6942F03B
:102320008052DA61DB6903F080530193019B012540
:10233000214B1B6813F4807F26D0E368012B3DD02E
:10234000002B53D103F1804303F504331A6A22F0C2
:1023500001021A621A6A22F004021A6233E0154B73
:102360000022C3F88024FFF71FFD0546104B5B6A6F
:1023700013F0020FC7D0FFF717FD401B0228F5D955
:102380000320D2E00025D3E70B4A136843F480739F
:102390001360FFF709FD0646074B1B6813F4807FA7
:1023A000CBD1FFF701FD801B6428F5D90320BCE0E9
:1023B0000010024000004242007000405F4A136A71
:1023C00043F001031362E36833B3FFF7EDFC064605
:1023D0005A4B1B6A13F0020F2FD1FFF7E5FC801B4D
:1023E00041F288339842F3D903209EE0052B09D0AF
:1023F000524B1A6A22F001021A621A6A22F004028F
:102400001A62E0E74D4B1A6A42F004021A621A6A35
:1024100042F001021A62D6E7FFF7C6FC0646474BB8
:102420001B6A13F0020F08D0FFF7BEFC801B41F2BD
:1024300088339842F3D9032077E0E5B9E369002BAC
:1024400072D03E4A526802F00C02082A56D0022B83
:1024500017D03B4B00221A66FFF7A6FC0446374B09
:102460001B6813F0007F47D0FFF79EFC001B02287B
:10247000F5D9032059E0314AD36923F08053D36161
:10248000DCE72F4B00221A66FFF78EFC05462B4B2C
:102490001B6813F0007F06D0FFF786FC401B022864
:1024A000F5D9032041E0236AB3F5803F1AD02349D0
:1024B0004B6823F47413226A606A024313434B602F
:1024C0001F4B01221A66FFF76FFC04461B4B1B686B
:1024D00013F0007F0ED1FFF767FC001B0228F5D92F
:1024E000032022E0154A536823F40033A1680B430C
:1024F0005360DCE7002018E0002016E0012B16D026
:102500000E4B5B6803F48031226A914211D103F4CF
:102510007013626A93420ED1002006E001207047DA
:10252000012002E0012000E0002002B070BD012087
:10253000FBE70120F9E70120F7E700BF00100240A8
:10254000000042420F4B5B6803F00C02082A01D0E6
:102550000D487047C3F383420C49885C13F4803FF5
:102560000BD0084B5B68C3F34043094AD35C064A6F
:1025700002FB00F0B0FBF3F07047064B03FB00F0EA
:10258000704700BF0010024000127A004495000816
:102590004095000800093D00002800F0A08070B5BB
:1025A0000D460446524B1B6803F007038B420BD2C7
:1025B0004F4A136823F007030B431360136803F0BB
:1025C00007038B4240F08D80236813F0020F17D071
:1025D00013F0040F04D0474A536843F4E063536098
:1025E000236813F0080F04D0424A536843F4605341
:1025F0005360404A536823F0F003A1680B435360D3
:10260000236813F0010F31D06368012B20D0022B17
:1026100025D0384A126812F0020F64D035494A6852
:1026200022F0030213434B60FFF7BEFB0646314B1B
:102630005B6803F00C036268B3EB820F16D0FFF700
:10264000B3FB801B41F288339842F0D9032045E068
:10265000284A126812F4003FE0D101203EE0254AEA
:10266000126812F0007FD9D1012037E0204B1B689F
:1026700003F00703AB420AD91D4A136823F007038E
:102680002B431360136803F00703AB422DD123687B
:1026900013F0040F06D0174A536823F4E063E1688F
:1026A0000B435360236813F0080F07D0114A536897
:1026B00023F46053216943EAC1035360FFF742FFEB
:1026C0000C4B5B68C3F303130B4AD35CD8400B4B32
:1026D00018600B4B1868FFF723FB002070BD01202A
:1026E00070470120FAE70120F8E70120F6E700BF74
:1026F0000020024000100240309500080400002035
:102700000C000020014B1868704700BF0400002037
:1027100008B5FFF7F7FF044B5B68C3F30223034AD6
:10272000D35CD84008BD00BF0010024028950008C7
:1027300008B5FFF7E7FF044B5B68C3F3C223034A06
:10274000D35CD84008BD00BF0010024028950008A7
:1027500030B4026A036A23F00103036245688369A7
:1027600023F073030C681C4322F002028B681343AE
:102770000B4A904206D0456084614A684263036216
:1027800030BC704723F00803CA681A4322F00403E0
:1027900025F440754A692A438D691543EBE700BF6C
:1027A000002C014030B4036A026A22F48072026293
:1027B0004468C26922F073020D68154323F4007364
:1027C0008A6843EA02230D4A904206D04460C561FC
:1027D0004A68C263036230BC704723F40063CA686E
:1027E00043EA022323F4806324F440544A6944EA10
:1027F00002148A6944EA0214E8E700BF002C014091
:1028000030B4036A026A22F4805202624468C269E8
:1028100022F4E6420D6842EA052223F400538D6853
:1028200043EA0533074DA84206D04460C2614A68B6
:102830000264036230BC704724F480444D6944EA6A
:102840008514F2E7002C014010B4036A046A24F0F6
:1028500001040462846924F0F00C4CEA021223F0B3
:102860000A030B438261036210BC704710B4036A11
:10287000046A24F010040462846924F4704C4CEA65
:10288000023223F0A00343EA01138261036210BC09
:102890007047836823F070030B4343F007038360A2
:1028A0007047000090F83D30DBB2012B27D10223A6
:1028B00080F83D300268D36843F00103D3600368B9
:1028C000114A934210D0B3F1804F0DD0A2F594324B
:1028D000934209D002F58062934205D01A6842F013
:1028E00001021A60002070479A6802F00702062A67
:1028F00007D01A6842F001021A60002070470120D8
:1029000070470020704700BF002C0140704770479F
:102910007047704710B5044603681A6912F0020F39
:1029200011D0DA6812F0020F0DD06FF002021A61B6
:102930000123037703689B6913F0030F70D0FFF73F
:10294000E6FF0023237723681A6912F0040F12D0E0
:10295000DA6812F0040F0ED06FF004021A6102233D
:10296000237723689B6913F4407F5FD02046FFF7ED
:10297000CEFF0023237723681A6912F0080F12D0C4
:10298000DA6812F0080F0ED06FF008021A61042303
:1029900023772368DB6913F0030F4ED02046FFF73F
:1029A000B6FF0023237723681A6912F0100F12D0A4
:1029B000DA6812F0100F0ED06FF010021A610823BF
:1029C00023772368DB6913F4407F3DD02046FFF76F
:1029D0009EFF0023237723681A6912F0010F03D0AA
:1029E000DA6812F0010F36D123681A6912F0800FED
:1029F00003D0DA6812F0800F34D123681A6912F01C
:102A0000400F03D0DA6812F0400F32D123681A6900
:102A100012F0200F03D0DA6812F0200F30D110BD71
:102A2000FFF774FF2046FFF773FF8AE72046FFF7A2
:102A30006DFF2046FFF76CFF9BE72046FFF766FF20
:102A40002046FFF765FFACE72046FFF75FFF204613
:102A5000FFF75EFFBDE76FF001021A612046FEF747
:102A600065FFC1E76FF080021A61204600F02AFA84
:102A7000C3E76FF040021A612046FFF74AFFC5E73F
:102A80006FF020021A61204600F01BFAC7E7000031
:102A900003681B4A90420AD0B0F1804F07D0A2F5DC
:102AA0009432904203D002F58062904203D123F029
:102AB00070034A681343124A90420AD0B0F1804F23
:102AC00007D0A2F59432904203D002F58062904282
:102AD00003D123F44073CA68134323F080034A6987
:102AE000134303608B68C3620B688362044B984294
:102AF00002D00123436170470B690363F9E700BF0C
:102B0000002C014040B310B5044690F83D30F3B1BD
:102B1000022384F83D30214651F8040BFFF7B8FF3B
:102B2000012384F8463084F83E3084F83F3084F83E
:102B3000403084F8413084F8423084F8433084F8DF
:102B4000443084F8453084F83D30002010BD80F8D2
:102B50003C30FEF791FFDBE70120704740B310B532
:102B6000044690F83D30F3B1022384F83D3021460D
:102B700051F8040BFFF78CFF012384F8463084F8EA
:102B80003E3084F83F3084F8403084F8413084F897
:102B9000423084F8433084F8443084F8453084F877
:102BA0003D30002010BD80F83C30FEF72FFFDBE702
:102BB0000120704730B4036A026A22F010020262F8
:102BC0004468826922F4E6420D6842EA052223F055
:102BD00020038D6843EA05130C4DA84206D04460DB
:102BE00082614A688263036230BC704723F08003CD
:102BF000CD6843EA051323F0400324F440644D6993
:102C000044EA85048D6944EA8504E8E7002C014024
:102C100038B590F83C30012B66D004460D460123B0
:102C200080F83C300C2A5AD8DFE802F0075959598D
:102C30001B5959593059595944000068FFF788FD0C
:102C40002268936943F0080393612268936923F033
:102C5000040393612268936929690B4393610020FF
:102C60003EE00068FFF7A6FF2268936943F4006323
:102C700093612268936923F4806393612268936966
:102C8000296943EA01239361002029E00068FFF7E6
:102C900089FD2268D36943F00803D3612268D369B0
:102CA00023F00403D3612268D36929690B43D361FC
:102CB000002015E00068FFF7A3FD2268D36943F404
:102CC0000063D3612268D36923F48063D3612268EF
:102CD000D369296943EA0123D361002000E0012080
:102CE000002384F83C3038BD0220FCE710B484682F
:102CF00024F47F4C42EA03220A4342EA0C02826037
:102D000010BC704790F83C30012B78D010B50446C9
:102D1000012380F83C30022380F83D30026893683C
:102D200023F47F4323F0770393600B68602B4CD030
:102D300029D8402B54D00CD9502B22D1CA684968CD
:102D40000068FFF781FD50212068FFF7A2FD0020F9
:102D500005E0202B0DD009D9302B0AD0012001230A
:102D600084F83D30002384F83C3010BD0BB1102BAB
:102D700005D119462068FFF78CFD0020EFE7012000
:102D8000EDE70120EBE7B3F5805F34D0B3F5005FEA
:102D90000CD1CB684A6889680068FFF7A7FF2268F2
:102DA000936843F4804393600020D8E7702B24D1CC
:102DB000CB684A6889680068FFF798FF22689368C3
:102DC00043F0770393600020C9E7CA684968006848
:102DD000FFF74CFD60212068FFF75BFD0020BEE798
:102DE000CA6849680068FFF72FFD40212068FFF797
:102DF00050FD0020B3E70020B1E70120AFE702203B
:102E00007047000090F83C20012A2CD010B40346F3
:102E1000012280F83C20022280F83D2002685068A0
:102E2000946820F0700C086840EA0C0050601A6842
:102E30000E4882420AD0B2F1804F07D0A0F59430FC
:102E4000824203D000F58060824204D124F08004E5
:102E5000496821439160012283F83D20002083F8D6
:102E60003C0010BC70470220704700BF002C01409E
:102E7000024690F83C30012B21D0012380F83C30F1
:102E8000CB6823F440738868034323F48063486865
:102E9000034323F400630868034323F48053086961
:102EA000034323F400534869034323F48043C9696F
:102EB0000B4311684B64002082F83C0070470220ED
:102EC000704770477047000010B5044602681369E8
:102ED00023F44053C1680B431361836802691343B1
:102EE00042691A430168CB6823F4B05323F00C0302
:102EF0001343CB600268536923F4407381690B4329
:102F000053610268134B9A4220D0FFF701FC02463E
:102F100002EB820202EB820263689B00B2FBF3F2D7
:102F20000D48A0FB02314909642303FB11231B0157
:102F30003233A0FB03035B0903F0F00202EB011242
:102F400003F00F03216813448B6010BDFFF7F0FB03
:102F50000246DDE7003801401F85EB512DE9F843BB
:102F600005460F4616469946DDF820802B681C68FA
:102F700037EA04040CBF01240024B4422DD1B8F177
:102F8000FF3FF3D0B8F1000F05D0FEF70DFFA0EB27
:102F900009004045EAD92A6802F10C0353E8003FD2
:102FA00023F4D0730C3242E800310029F3D12A68AF
:102FB00002F1140353E8003F23F00103143242E806
:102FC00000310029F3D1202385F8413085F84230C3
:102FD000002385F84030032000E00020BDE8F8839E
:102FE00060B310B5044690F8413013B3242384F83D
:102FF00041302268D36823F40053D3602046FFF7A2
:1030000063FF2268136923F49043136122685369B4
:1030100023F02A0353612268D36843F40053D3603A
:1030200000206064202384F8413084F842306063DB
:1030300010BD80F84030FEF79BFDD7E701207047B8
:103040002DE9F04182B01E4690F84130DBB2202BD2
:103050004BD104460D46904600294AD00AB90120BA
:1030600044E000234364212380F84130FEF79CFEB6
:103070000746A4F82480A4F82680A368B3F5805FEF
:1030800002D04FF000080FE02369FBB14FF00008B9
:103090000AE038F8023B2268C3F308035360E28C6D
:1030A00092B2013A92B2E284E38C9BB28BB1009669
:1030B0003B46002280212046FFF750FFD8B9002D63
:1030C000E7D015F8012B23685A60E8E7A8460025E9
:1030D000EAE700963B46002240212046FFF73EFFEC
:1030E00058B9202384F8413000E0022002B0BDE846
:1030F000F0810120FAE70320F8E70320F6E700005B
:10310000024A0349034800F0C9B800BF100000207C
:103110003D6B0008200000200C4B416810B599421F
:10312000044601D003F00AFDA168094B994202D080
:10313000204603F003FDE168064B994204D0204687
:10314000BDE8104003F0FABC10BD00BF9808002095
:1031500000090020680900202DE9F8430025042318
:10316000304C314A3149DFF8C890DFF8C880324F1F
:10317000324E116004F15C0029460822C4E903358F
:10318000C4E90055C4E90555A560656600F004F979
:1031900004F15800C4E90749C4E90987E66200F070
:1031A000CDF9274B2946082204F1C4006367C4E91E
:1031B0001A55C4E91E552567C4F8CC50C4F8805090
:1031C00000F0EAF804F1680304F1C000C4F88430A8
:1031D000C4E92298C4E9247600F0B0F9194B2946D5
:1031E00004F596700822C4F8DC30C4E93455C4E90B
:1031F0003855C4F8D850C4F83451C4F8E85000F039
:10320000CBF804F1D003C4E93D87C4F8F09004F58D
:103210009470C4F8FC60C4F8EC30BDE8F84300F0EA
:103220008DB900BF98080020D009002001310008A6
:10323000093300082D3300086D330008913300086E
:10324000090001001200020010B504460A4800F00F
:1032500079F9636B23B9094B094A1B68626323B18F
:10326000BDE81040044800F06FB9FFF775FFBDE8F6
:103270001040014800F068B9E0090020D0090020A2
:1032800019310008014800F05DB900BFE0090020D5
:10329000014800F059B900BFE00900202DE9F843CA
:1032A0004FF0000980460F461646D6E90154013D0D
:1032B00010D4A389013D012B08D9B4F90E30013394
:1032C00004D021464046B84749EA00096B1C04F186
:1032D0006804EED13668002EE7D14846BDE8F88391
:1032E0000FB400B5074A83B004AB106853F8042B41
:1032F0008168019300F058FD03B05DF804EB04B061
:10330000704700BF1C00002010B50C46B1F90E102C
:1033100000F0BAF8002803DB236D0344236510BDD9
:10332000A38923F48053A38110BD00BF2DE9F04190
:103330000C46B1F90C101F46CB05054616460BD4BA
:1033400021F48051A1813B4632462846B4F90E1043
:10335000BDE8F04100F0AEB8B4F90E10022300222F
:1033600000F07CF8B4F90C10EAE700BF10B50C4689
:10337000B1F90E1000F072F8B4F90C30421C0EBF17
:1033800023F4805343F480532065A38110BD00BF14
:10339000B1F90E1000F050B870B5860747D0541E32
:1033A000002A3ED00346CAB201E0013C39D303F8FB
:1033B000012B9D07F9D1032C2CD9CDB205EB0525A6
:1033C0000F2C1A4605EB054534D9A4F1100C2CF04E
:1033D0000F0603F1100EB6444FEA1C1C1560556031
:1033E0009560D56010327245F8D10CF1010214F0ED
:1033F0000C0F03EB021204F00F0C13D0ACF104031A
:1034000023F003030433134442F8045B9A42FBD1D4
:103410000CF003042CB1C9B21C4403F8011B9C42FC
:10342000FBD170BD64461346002CF4D1F9E7034686
:103430001446C0E7A446E1E7002238B5064D04462D
:1034400008462A60FEF714FC431C00D038BD2B68E8
:10345000002BFBD0236038BDD409002038B50C46C2
:10346000114600228446074D20462A601A466446CB
:10347000FEF708FC431C00D038BD2B68002BFBD0A6
:10348000236038BDD409002038B50C46114600220F
:103490008446074D20462A601A466446FEF7D8FB4C
:1034A000431C00D038BD2B68002BFBD0236038BDF7
:1034B000D409002038B50C46114600228446074D39
:1034C00020462A601A466446FEF71CFA431C00D0C8
:1034D00038BD2B68002BFBD0236038BDD4090020F9
:1034E000014B1868704700BF1C00002070B50F4BDF
:1034F0000F4DAB42A3EB050607D00024B61055F8DC
:10350000043B01349847A642F9D805F0F9FF094D6C
:10351000094B5E1BAB424FEAA60606D0002455F8C5
:10352000043B01349847A642F9D870BD449900087D
:1035300044990008449900084C990008704700BF5E
:10354000704700BF704700BF704700BF024B13B108
:10355000024800F005B8704700000000A1730008A1
:10356000002301461A46184603F0EEBF2DE9F84342
:1035700006460820894603F027FF0546DFF89880B5
:10358000304600F005FCD8F808305F6827F00307E4
:10359000A7F11104A4EB09042C44B4FBF5F4013C9D
:1035A00005FB04F4A54208DC0021304603F0E6FEEA
:1035B000D8F808303B44984205D0304600F0EEFB86
:1035C0000020BDE8F8833046614203F0D7FE0130A9
:1035D0000FD0124AD8F808303F1B47F001075F6050
:1035E000136830461B1B136000F0D8FB0120BDE8B8
:1035F000F8830021304603F0C1FED8F80820831A72
:103600000F2BDADD43F001035360054B03491B68C0
:10361000C01A0860D1E700BF50010020E80900206F
:103620004401002000297CD0F8B50C46064600F085
:10363000AFFB54F8043C774FA4F1080523F00101D7
:103640006818D7F808C04268844522F0030200F0E9
:103650008380DB07426000EB020C33D454F8084C43
:10366000DCF804302D1B2144AC6807F1080C6445DC
:1036700003F0010364D0D5F80CE0C4F80CE0CEF8F8
:103680000840002B00F0818041F001036B60016075
:10369000B1F5007F22D20122CB0849098A4079681E
:1036A00001330A437A6057F8331007EBC302083A34
:1036B000C5E9021247F83350CD603046BDE8F84006
:1036C00000F06CBBDCF80430DB072BD541F00103C4
:1036D000B1F5007F44F8043C0160DCD3B1F5206F04
:1036E0004FEA512353D28B0903F1390003F1380219
:1036F000C300F818FB580838984203D163E09B6870
:10370000984204D05A6822F003028A42F7D8D86857
:10371000C5E9023085603046DD60BDE8F84000F064
:103720003DBB7047114407F1080C836863453FD0E7
:10373000C268DA60936041F001036B606950A7E7EB
:10374000002B61D10A44D0E90213CB60996042F0AA
:1037500001036B60AA50B0E70A44D90707D454F8B4
:10376000083CED1A1A44D5E90213CB60996042F087
:1037700001036B60284BBD601B6893429DD8274BAB
:1037800030461968FFF7F2FE97E71144CDE7142B96
:1037900008D9542B1FD80B0B03F16F0003F16E02F5
:1037A000C300A6E703F15C0003F15B02C300A0E7DE
:1037B00041F001033D617D61C5F808C0C5F80CC04A
:1037C0006B60695079E70121921001FA02F2796881
:1037D0000A437A609CE7B3F5AA7F06D8CB0B03F1C6
:1037E000780003F17702C30083E740F2545293421A
:1037F00006D88B0C03F17D0003F17C02C30078E74F
:103800004FF47E737E2274E741F001036B60016028
:1038100053E700BF5001002048010020180A002093
:103820002DE9F04F01F10B05162D064683B024D883
:10383000102900F2AA8000F0ABFA102518234FF0EF
:10384000020CB74F3B445C68A3F10802944200F0BD
:10385000198130466368E268A16823F00303CA60F7
:10386000234491605A68083442F001025A6000F023
:1038700095FA204603B0BDE8F08F35F0070500F15A
:103880008480A94200F2818000F082FAB5F5FC7FC5
:10389000C0F06F816B0A7CD0042B00F21B81AB0956
:1038A00003F1390C03F1380E4FEACC009C4F384439
:1038B00044680838A04207D10DE0002AE16880F290
:1038C000DB80884207D00C46636823F003035A1B51
:1038D0000F2AF2DDF446DFF84C823C69444500F0E3
:1038E000B980636823F0030EAEEB05030F2B00F3E2
:1038F0004581002BC7E9048880F22F81BEF5007F47
:10390000786880F0C68001234FEADE014FEA5E1E30
:10391000194403FA0EF357F83120184307EBC1039B
:10392000083BA260E360786047F83140D460012131
:103930004FEAAC039940814232D8014206D12CF0C3
:10394000030C490001420CF1040CFAD007EBCC0A3D
:103950005046E146D0F80CE00DE0DEF80420744655
:1039600022F00302531B0F2BDEF80CE000F3BF80A4
:10397000002B80F2E3807045EFD109F1010919F0C5
:10398000030F00F10800E5D124E10C23336000248B
:103990006FE74FF400704FF0400C4FF03F0E85E79B
:1039A000BC68636823F00309A94503D3A9EB0503A9
:1039B0000F2B51DC5C4B08201B6803F1100803F04F
:1039C00003FD5A4A04EB090300931368834601334D
:1039D000A84405D008F1FF388044434203EA0808B0
:1039E0004146304603F0CAFCB0F1FF3F82464F4AE1
:1039F00000F0E18004EB0903834200F2DA804C4BD3
:103A00000BF1FF31186840448446186040F0008193
:103A10001AEA010F40F0FC80D7F808A0C84448F02B
:103A20000102CAF804205446424B1968814238BF4B
:103A30001860414B1968814238BF186022F00308B2
:103A4000A845A8EB050301D30F2B05DC304600F099
:103A5000A5F99CE778686AE7621943F0010345F02D
:103A6000010565603046BA600834536000F096F98D
:103A7000204603B0BDE8F08FA2683046D1602344F1
:103A80008A60EFE6DC68A3427FF4E3AE0CF1020C3F
:103A900021E7BEF5206F4FEA5E22C0F08380142A32
:103AA00000F2178102F15C03DB005B32F918FB586E
:103AB0000839994203D1F3E09B68994204D05A68CF
:103AC00022F003027245F7D8D968C4E902318C604C
:103AD000DC602CE7142B71D9542B00F203812B0BE3
:103AE00003F16F0C03F16E0E4FEACC00DEE66119B4
:103AF000304645F00105A668656043F00105C6F84B
:103B00000CE0CEF80860C7E90411C1F80880C1F8DC
:103B10000C804D60A35000F041F90834A9E600BFC5
:103B20005001002058010020180A00204401002004
:103B3000E8090020140A0020100A002022445368DB
:103B4000304643F00103536054F8083FC3F80CE0DB
:103B5000CEF8083000F022F98BE6A644DEF80430F7
:103B6000304643F00103CEF8043000F017F9083472
:103B70007FE64FEAD50C05F1080362E6621943F0CF
:103B8000010145F0010565603046C7E90422C2F82D
:103B90000880C2F80C80516044F80E3000F0FEF846
:103BA000083466E64FEA9E1202F13903DB00383230
:103BB0007CE7BC4224D0BC6862683FE703F15C0C40
:103BC00003F15B0E4FEACC0070E65AF80839534512
:103BD00040F0D9801CF0030F0CF1FF3CF5D17B685D
:103BE00023EA01037B60490099423FF6D9AE19B937
:103BF000D6E6490009F104091942FAD0CC46A5E6F7
:103C0000624B0BF1FF31186808EB000CC3F800C0E1
:103C10001068013071D004EB0902AAEB0202624481
:103C20001A601AF00702CDE9002341D0C2F1080260
:103C30009244D04408EA01005A44121A02EA010BE5
:103C40005946304603F09AFB421C019B72D0A0EB10
:103C50000A0000EB0B08186848F001025844BC4207
:103C6000C7F808A01860CAF804203FF4DCAEB9F128
:103C70000F0F45D94FF0050C6168A9F10C0222F035
:103C8000070201F00101114361600F2A04EB0201F8
:103C9000C1F804C0C1F808C054D8DAF80420C2E65C
:103CA0004FF0010E92100EFA02F2104378600CE70A
:103CB0000AEB08020A40ABEB020202EA010B59468A
:103CC000304603F05BFB431C019BC0D1DDF800B024
:103CD000C1E7542A18D84FEA1E3202F16F03DB0005
:103CE0006E32E3E6B3F5AA7F18D8EB0B03F1780C3C
:103CF00003F1770E4FEACC00D8E5C2F800A090E7B8
:103D00000123CAF80430A1E6B2F5AA7F25D84FEA0C
:103D1000DE3202F17803DB007732C7E640F254521C
:103D2000934225D8AB0C03F17D0C03F17C0E4FEAD6
:103D3000CC00BBE5009A4FF0000B083A9044A8EB8A
:103D40000A0888E7304604F108010093FFF76AFC8F
:103D5000009BD7F808A018689FE740F254539A4296
:103D60000DD84FEA9E4202F17D03DB007C329DE6D6
:103D70004FF47E704FF07F0C4FF07E0E96E54FF4BF
:103D80007E737E2292E67B682DE700BFE809002063
:103D90000148FFF7D7BB00BFD80900200148FFF753
:103DA000D3BB00BFD80900202DE9F04FDDB091460C
:103DB0001C460891834603F0DDFA03680E9418460A
:103DC000199303F05BFB0346082200212CA81893EB
:103DD000FFF7E2FABBF1000F04D0DBF83430002B20
:103DE00001F08C80089B5A6EB3F90C30D10702D4D5
:103DF0009A0540F1B8869F0407D4089943F400530C
:103E00004A6E8B8122F400524A661E0740F1C78039
:103E1000089A1269002A00F0C28003F01A020A2AE6
:103E200000F0CC80002300249E46CDE931330023EE
:103E300033AA9046CDE91434CDE91AEECDE91CEE53
:103E40003092CDF85CE0CDF82CE0CDF848E0CDF82C
:103E500024B0CDF81890069E099D894B2CAFD3F85D
:103E6000E44003F081FA3246034628A92846009729
:103E7000A047002800F0C180C0F2B780289B252B06
:103E800001D00644E9E7069B0546F71A40F0B980E1
:103E900000224FF0FF3391460A937378741C8DF81B
:103EA00097200C921F460134A7F120035A2B00F2F1
:103EB000E980DFE813F0D302E700E700CF02E70074
:103EC000E700E700AF02E700E7006A008C02E700C6
:103ED00074029502E70091025B005B005B005B00EF
:103EE0005B005B005B005B005B00E700E700E70056
:103EF000E700E700E700E7006A01E70004022C039F
:103F00006A016A016A01E700E700E700E7002803A9
:103F1000E700E700E502E700E700E7001B02E70033
:103F20001603E700E7001907E700E700E700E700EE
:103F3000E700E700E700E7006A01E70004024C023F
:103F40006A016A016A0182024C020002E7007802FB
:103F5000E70055033E0744030002E7001B0272001E
:103F60003A07E700E7004107E70072000022A7F1E7
:103F7000300314F8017B02EB820203EB4202A7F14B
:103F80003003092BF5D90C928EE70E9B53F8042BC6
:103F9000002A0C920E93C0F2FF81237882E7089DDD
:103FA0005846294603F05EF8002841F0E083B5F951
:103FB0000C3003F01A020A2A7FF434AF0899B1F9E1
:103FC0000E20002AFFF62EAF4A6ED00702D49A05C3
:103FD00041F1D58123464A465846089901F01AFD19
:103FE0000B900B985DB0BDE8F08F082200212CA843
:103FF000FFF7D2F9012006442FE7069B0546F71A82
:1040000012D0069BC8E90037329B3B443293319B68
:104010000133072B319313DC08F108080B9B3B4459
:104020000B93002D7FF434AF329BDDF824B0002BCE
:1040300041F0E9800022089B3192B3F90C3012E084
:1040400030AADDE9081001F061FD48B90DF1CC0896
:10405000E4E7A3460D9B1BB158460D99FFF7E2FA22
:10406000089BB3F90C30089A526ED40740F11981BD
:10407000590601F188830B985DB0BDE8F08F00BF51
:10408000580500200F94002FCED04FF0010B0022D6
:1040900043AB8DF80C71CDF81CB00693CDE910221E
:1040A0008DF897200D920A92139219F0020302D014
:1040B00007990231079119F08404329D05D10C99BA
:1040C00007980E1A002E00F3A88082B10122C8F8CA
:1040D0000420319A013501320DF19701072A3295FA
:1040E0003192C8F8001000F3F28308F108087BB1A0
:1040F0000223C8F80430319B0235013326AA072B6E
:1041000032953193C8F8002000F3EF8308F10808D6
:10411000802C00F0B8820A9BA3EB0B06002E00F364
:10412000F68219F4807F40F02A82069B5D44C8F82D
:104130000030319BC8F804B00133072B329531931E
:1041400000F3468308F1080819F0040F05D00C9B12
:10415000079A9C1A002C00F3D483DDE90B320799EF
:104160008A42ACBF9B185B180B93002D40F007836D
:10417000002331930D9B1BB10D990998FFF752FA5B
:104180000DF1CC080F9B069365E60E9B0F94073349
:1041900023F00703F3E802450E9325F00043219333
:1041A0002094DDE920AB4FF0FF3250465946B04B2A
:1041B000CDE91445FCF76CFF002840F03C854FF03A
:1041C000FF3250465946AA4BFCF744FF002840F006
:1041D00032850022002320462946FCF731FF0028C3
:1041E00041F0CE819DF8972000214FF0030BA14CA8
:1041F000A14B29F080090D91CDF81CB0472FC8BF05
:104200001C46CDE9101106940A911391002A3FF43F
:104210004CAF079B0133079347E7102E319A41F3C8
:104220003E82DFF858C241462846B846CDE91E34E2
:10423000DDE908454FF0100A6746CDF858C004E0A4
:10424000103E102E01F1080115DD01321030072A51
:10425000C1E9007ACDE93120F2DD2146284630AAB5
:1042600001F054FC002840F04686DDE93120103E84
:10427000102E33A9E9DC4746DDE91E3488460546A1
:10428000013216993544072ACDE93125C8F80010C6
:10429000C8F8046000F31E869DF8972008F108080E
:1042A00013E798053FF5E4AE089CA06DFFF74CF9C5
:1042B000B4F90C30DCE6237849F02009F2E50E9BD6
:1042C000432F0F9403F1040500F06A8519F0100FD5
:1042D00040F066850E9B43AC1B688DF80C310123C2
:1042E0009B46079300220E950694D7E600230E9E68
:1042F0008DF8973056F8043B0F940693002B00F08E
:104300003E85532F00F0118619F01003109340F0F2
:104310000C860A9B5F1C00F080871A46109906984D
:1043200003F060F80D90002801F022830D9B069A9F
:104330007327A3EB020B109B2BEAEB719DF89720E0
:104340000E960A930791139311930D935EE719F05C
:10435000200F0F9400F0E2800E9B073323F0070339
:104360001846596850F8083B0A460E900029C0F2DA
:1043700048840A99013100F09A8253EA020129F037
:10438000800B40F095820A9A002A40F096825CAB3E
:10439000D9460693934669E10C9B5B420C932378C4
:1043A00049F004097EE523786C2B03BF637849F05C
:1043B0002009013449F0100974E52378682B03BF04
:1043C000637849F40079013449F040096AE52B2308
:1043D0008DF89730237865E5237849F0800961E509
:1043E000224612F8017B2A2F01F0DD82A7F130036B
:1043F000092B144698BF002201F2558114F8017B65
:1044000002EB820203EB4202A7F13003092BF5D93C
:104410000A9249E5099D284602F0ACFF4368184618
:104420001C9303F02BF8034628461D931D4602F00B
:10443000A1FF83681793002D3FF4AFAD179A23783F
:10444000002A3FF42FAD1278002A3FF42BAD49F437
:10445000806927E5237849F0010923E59DF8972035
:104460002378002A7FF41EAD20228DF8972019E5CD
:10447000FFFFEF7F5495000858950008A8950008A5
:104480000F9449F0100919F0200200F04F830E9BA1
:10449000073323F0070319465A6851F8083B0E9179
:1044A000002129F4806B00200A9C8DF89700651C80
:1044B00000F0BF8053EA02002BF0800940F0B88082
:1044C000002C40F02085002940F08F841BF0010B68
:1044D00000F07E8330238DF86F310DF26F13069359
:1044E000C4E00F9449F0100B1BF0200200F02D8364
:1044F0000E9B0121073323F0070318465A6850F832
:10450000083B0E90CFE7237849F00809CAE449F048
:10451000100919F0200F0F947FF41EAF0E9A19F0B6
:10452000100F52F8043B0E9240F0668319F0400FD2
:1045300000F05E8343F3C03211461BB216E747F624
:1045400030030E9AA848ADF8983052F8043B022187
:104550000E92782700220F9449F0020B1A90A2E7DE
:1045600019F0200F0F9400F055830E9B0B9A1B68D7
:104570001A60D2175A600E9B04330E9302E6652F21
:1045800040F33881DDE9140100220023FCF74EFDE1
:10459000002800F0F1810123C8F80430319B934AD0
:1045A00001330135072B32953193C8F8002000F311
:1045B000AF8408F10808279B129A934280F2DB82AD
:1045C000189B199A1D44C8E90023319B3295013389
:1045D000072B319300F3C78308F10808129B5C1E78
:1045E000002C7FF7B1AD102C319B40F30985DDE93C
:1045F00008AB7F4F1026169705E008F10808103C1D
:10460000102C40F3FF8401331035072BC8E90076E6
:10461000CDE93135F1DD5146584630AA01F076FA40
:1046200000287FF417ADDDE931350DF1CC08E6E760
:10463000CB46012900F03C81022900F024815CACCA
:1046400003F00701DB0843EA4273D208303153EA32
:104650000205204604F8011DF2D11BF0010F06945B
:1046600040F00B825CABD946A3EB040B0A9A002303
:104670005A45B8BF5A46CDE9103307920D939DF8BD
:1046800097201393C2E50C9B079A9E1A002E7FF782
:1046900042AD102E319B41F3EE8055484246DDE994
:1046A000088A294610240546169004E0103E102E74
:1046B00002F1080215DD01331031072BC2E9005465
:1046C000CDE93131F2DD4146504630AA01F01EFA03
:1046D000002840F08684DDE93131103E102E33AAE7
:1046E000E9DC90460D460133169A3544072BCDE997
:1046F0003135C8F80020C8F8046000F327830A9B0E
:1047000008F10808A3EB0B06002E7FF70AAD384A24
:10471000102E319B169223DD2A46DDE908544FF016
:10472000100A04E0103E102E08F1080817DD0133CE
:104730002F491032072BC8E9001ACDE93132F1DDDB
:104740002946204630AA01F0E1F900287FF481AC27
:10475000DDE93132103E102E0DF1CC08E7DC1546B4
:104760000133169A3544072BCDE93135C8F80020BE
:10477000C8F8046000F3CD8108F10808D1E430AA3C
:10478000DDE9081001F0C2F900283FF4F1ACDDF8D2
:1047900024B05FE4189B19991D44C8E90013319BAC
:1047A00032950133072B319300F3DA8508F10808BD
:1047B000002AC0F2BB87069A0133C8F80020129A7B
:1047C000072B1544CDE93135C8F804207FF7BAAC82
:1047D000DDE9081030AA01F099F90028D7D1329DFF
:1047E0000DF1CC08B0E400BF649500089495000872
:1047F00098950008129B319E012B069B05F101053F
:10480000C8F800304FF0010306F10106CDE931652B
:1048100008F10807C8F8043040F33D81072E00F383
:10482000F582189B0136199A1D44072EC7E900230B
:10483000CDE9316500F3DE820837129B0022DDE905
:10484000140103F1FF380023FCF7F0FB002840F0CF
:104850003581069C013601344544072ECDE931658A
:104860003C60C7F8048000F31D8108371B9B0136AC
:104870001D447B60072E2AABCDE931653B60A7DC88
:1048800007F1080860E41A9C5CA903F00F00205CA3
:104890001B0943EA0273120901F8010D53EA0200F1
:1048A000F3D15CABD9460691A3EB010BDEE6CB4618
:1048B0000A2B72F1000180F0B58230338DF86F3130
:1048C0000DF26F13D94606934FF0010BCEE630AAD6
:1048D000DDE90810169301F019F900287FF457AFAD
:1048E000329D169B0DF1CC0801E430AADDE90810D9
:1048F00001F00CF900287FF44AAF329D0DF1CC088D
:1049000006E4102C319B40F30387DDE908A9B54F7D
:104910001026169704E0103C102C08F1080816DD4C
:1049200001331035072BC8E90076CDE93135F2DDCA
:104930005146484630AA01F0E9F8002840F0548377
:10494000DDE93135103C102C0DF1CC08E8DC0133E9
:10495000169A2544072BC8E90024CDE931357FF7A5
:10496000FCABDDE9081030AA01F0D0F800287FF494
:104970000EAF329DFFF7F1BB279A002A40F300816A
:10498000109F129B069A9F42A8BF1F46002F02EB62
:10499000030B0BDD319B3D440133072BC8E9002796
:1049A0003295319300F3608608F10808109E002FBD
:1049B000A8BFF61B002E00F33983DDF818A0109B6A
:1049C00019F4806F9A4440F03B85279C129B9C42CF
:1049D00003DB19F0010F00F00284189B199A1D44A3
:1049E000C8E90023319B32950133072B319300F343
:1049F000488608F10808129BABEB0A061C1BA6426E
:104A0000A8BF2646002E0DDD319B35440133072B10
:104A1000C8F800A0C8F804603295319300F34786C7
:104A200008F10808002EA8BFA41B002C7FF78CAB50
:104A3000102C319B40F3E482DDE908AB6A4F10266D
:104A4000169705E008F10808103C102C40F3DA82B4
:104A500001331035072BC8E90076CDE93135F1DD9A
:104A60005146584630AA01F051F800287FF4F2AAC6
:104A7000DDE931350DF1CC08E6E7302900F0608141
:104A80003023069A023802F8013C5CABD946069006
:104A9000A3EB000BEAE519F0010F7FF4BFAE072E80
:104AA0007FF7E4AEDDE9081030AA01F02FF8002806
:104AB0007FF46DAEDDE9316533AFD7E6129B012B94
:104AC0007FF7D4AE112B40F39287DDE908BA464B4D
:104AD000CDF8189010249946169306E00837A8F1EF
:104AE0001008B8F1100F40F3C88201361035072EB8
:104AF000C7E90094CDE93165F0DD5946504630AA4A
:104B000001F004F8002840F06C82DDE9316533AF34
:104B1000E5E730AADDE9081000F0F8FF00287FF48F
:104B200036AE329D0DF1CC08FFF7FBBA0E9951F865
:104B3000043B0E9119F010017FF4B2AC19F0400063
:104B400000F0AF820A469BB2AAE40E9951F8043BEA
:104B50000E911BF0100143D11BF040003BD00A46E0
:104B60009BB201219FE4089DA86DFEF7EBFCB5F90F
:104B70000C30FFF740B919F0010F3FF4E5AA1FE52B
:104B80000123C8F80430319B184901330135072B44
:104B900032953193C8F8001000F33E8508F10808FB
:104BA000002A7FF4F7AD129A09F0010313433FF492
:104BB000CBAA189B199A1D44C8E90023319B329552
:104BC0000133072B319300F3CB8308F10808F2E59A
:104BD0005CAB06934AE51BF400721CBF0246DBB2D5
:104BE000012160E4A89500089895000894950008B4
:104BF00019F4007F40F00183DA1711460029BFF64F
:104C0000B8AB5B42CB464FF02D004FF0010162EB99
:104C1000420249E419F0100F40F0028219F0400FEF
:104C200040F0E58219F4007F00F0FA810E9B0B9AA8
:104C30001B681A709FE4DDE9140102460B46FCF77D
:104C400027FA002840F02D86612F00F00B85412FB8
:104C500000F0F5820A9B013300F01A8627F020034A
:104C6000472B04D10A9B002B08BF01230A9349F468
:104C70008070DDE91412002A4FF000031690CDF881
:104C80004490C0F2D784CDE922121E930D93A7F170
:104C90004103252B00F20C82DFE813F07D030A02AA
:104CA0000A020A0276037A030A020A020A020A02C6
:104CB0000A020A020A020A020A020A020A020A0294
:104CC0000A020A020A020A020A020A020A020A0284
:104CD0000A020A020A020A020A020A020A020A0274
:104CE0000A020A0276037A03C14B0F941A9319F051
:104CF00020026CD00E9B073323F0070319465A6835
:104D000051F8083B0E9119F0010F09D053EA020146
:104D100006D030218DF8997049F002098DF898106D
:104D2000022129F4806BFFF7BEBBCB460F94FFF73F
:104D3000DBBB0F94FFF7A7BBAE4B0F941A93D6E7DC
:104D4000069A5CABD946A3EB020B8FE430AADDE9EF
:104D5000081000F0DBFE00287FF419AD329D0DF144
:104D6000CC08FFF7D8B930AADDE9081000F0CEFE74
:104D700000287FF40CAD329D0DF1CC082EE40A9B87
:104D8000069A062B28BF06239B489B46CDE9102296
:104D900007930E960A920D9206901392FFF736BA79
:104DA000082200212EA8FEF7F7FA0E9A43AC2146FE
:104DB000126809982EAB04F04BF9B0F1FF3F83461F
:104DC00000F0328520EAE0730793FFF78BBA0E9963
:104DD00051F8043B0E9119F0100194D119F04000E4
:104DE00000F059810A469BB28DE75CABDDF828B034
:104DF00006933BE430AADDE9081000F087FE0028A6
:104E00007FF4C5ACDDE9316533AF16E530AADDE9E5
:104E1000081000F07BFE00287FF4B9ACDDE93165B5
:104E200033AFFEE40BF48061CDE9067B4FF0000E5A
:104E30004FF0CC3A05240F46DFF8C0910DF5B87C51
:104E4000CDF8348006E00A2B72F1000235D34346D8
:104E50002A46B446991841F10001A9FB010525F045
:104E6000030000EB9500091A581A0AFB00F562F1DD
:104E7000000BA0FB098009FB0B5508F0010B054452
:104E8000ABFB040B40184FEA5808303048EAC578AD
:104E90000EF1010E0CF1FF360CF8010C6D08002F1D
:104EA000D1D0179909788E45CDD1BEF1FF0FCAD068
:104EB0000A2B72F1000280F08183DDE9067B5CAB96
:104EC000D946DDF83480CDF848E00696A3EB060B12
:104ED000FFF7CCBB30AADDE90810169300F016FEF0
:104EE00000287FF454AC9DF89720329D169B0DF15D
:104EF000CC08FFF7EAB8AB46FFF7ACB85846FEF768
:104F0000A3F9FEF76FBF0129CB467FF495ABD4E43C
:104F100030AADDE9081000F0F9FD00287FF437AC75
:104F2000329D0DF1CC08FFF746BB069B2EAC082244
:104F3000002120462993FEF72FFADDF828A0BAF1C8
:104F4000FF3F00F04B830025CDF81C90AB46DDF809
:104F500024900DE02346484643A904F079F8431C09
:104F6000584400F06184504507DC00F0EE8483462D
:104F7000299B5A590435002AECD1DDF81C90BBF16D
:104F8000000F00F03A83BBF1630F40F301840998EE
:104F90000BF10101FEF744FC0690002800F0448468
:104FA000069B0D93082200212046FEF7F5F95B468B
:104FB00006990998009429AA04F070F8834540F0F6
:104FC0001E8500232BEAEB720792069ACDE9103377
:104FD00002F80B309DF897200E960A931393FFF773
:104FE00015B9D346FFF736B8CB46FFF733B800BF45
:104FF00078950008649500088C950008CDCCCCCC41
:10500000AE4A1692169A01332544072BC8F80020A1
:10501000C8F80440CDE931357FF794A8FFF7D8BB35
:105020000E9B0B9A1B681A60FFF7A5BA102E319BD6
:1050300040F3C884DDE908A4A0492A4610270D469C
:10504000169105E008F10808103E102E40F39D82ED
:1050500001331032072BC8E90057CDE93132F1DDB9
:105060005146204630AA00F051FD00287EF4F1AFF1
:10507000DDE931320DF1CC08E6E7DDF818900136B4
:10508000169B4544072ECDE931653B60C7F8048087
:105090007FF7EBAB06E519F400721CBF0246DBB2EA
:1050A00031E619F400721CBF0246DBB2FFF7F8B913
:1050B00002230A9ECDE900362EAB049329AB03935D
:1050C00027AB02930998DDE9222302F01DFB672F2D
:1050D000069000F0FC82472F00F0BB83069B27F070
:1050E0002004462C03EB060505D11B78302B00F07D
:1050F000F083279E35440022DDE922010023FBF7DF
:1051000095FF002800F075812B46069A9B1A129392
:10511000279A472C109200F05981462C00F0DE822D
:10512000531E612F279300F03B84412F40F057819D
:1051300050210120002BAEBF2B22C2F101032D22F2
:10514000092B8DF8A8108DF8A92040F35F830DF18D
:10515000BF0632465A4C19461046A4FB0352D208E9
:1051600002EB8205A3EB450303F1300563291346E7
:1051700000F8015C00F1FF32EDDC303302F8013C55
:10518000831EB34280F01A840DF1A90213F8011BAB
:10519000B34202F8011FF9D15CAB181AA0F1AD03BC
:1051A0001B93129B1B9A012B03EB020B40F374839E
:1051B000189B9B44119B2BEAEB7223F4806343F40E
:1051C00080790023CDE91033139307921E9B002BA7
:1051D00040F008819DF897200A93FFF717B8129BBB
:1051E000ABEB0A061C1BA642A8BF26461AE40E9B80
:1051F0000B9A1B681A80FFF7BEB943F3C012114621
:105200005BB2FFF7B3B85846089930AA00F07EFCAD
:1052100000283EF40FAFFEF723BF06980E9602F06B
:105220002DF9109B73270A93139311930D9320EA82
:10523000E07383469DF897200793FEF7E7BF582356
:105240008DF8993030238DF8983049F0020311938E
:105250000A9B632B00F3058300230D9343AB069356
:1052600049F481731693159B002BC0F2E48100234F
:105270001E93DDE91434CDE92234612F7FF407ADAC
:10528000DDE9220127AA02F027F900224FF07F531F
:10529000FBF7FAF80022002382468B46FBF7C6FE96
:1052A000002840F0EC82074B07930A9BCDE9127867
:1052B00003F1FF394C46069E0CE000BF98950008AC
:1052C000CDCCCCCC6495000800220023FBF7AEFEC9
:1052D000F0B93C460022B54B504659461096FBF7B4
:1052E000D3F889468046FBF7E9FE0546FBF762F8EE
:1052F0000B46024649464046FAF70EFF079B824698
:105300005B5D8B4606F8013B631C04F1FF37DBD184
:105310000022DDE9127850465946A54BA146FBF71D
:10532000ADFE002840F03982504659460022A04B7D
:10533000FBF77CFE10B1EA0700F12F82B9F1000FF4
:10534000C0F24682302209F10103334406F8012BF2
:10535000B342FBD1069A27F020049B1A1293D7E69A
:1053600030AADDE9081000F0D1FB00287FF40FAA75
:10537000DDE93135279A0DF1CC08FFF719BA886DB0
:10538000FEF7E2F8FEF726BE0A9A0223561C91E6C3
:1053900003230A9E8EE627AADDE9220102F09CF88B
:1053A00000224FF07F53FBF76FF800220023824664
:1053B0008B46FBF73BFE002840F061827D4B079354
:1053C00073E7069A2E9B9B1A279A1293D31C10926E
:1053D00002DB0A9B934218DA531E023F27930020F8
:1053E000F9B2A7E62D2200238DF897200A93FEF745
:1053F00010BF2E9BAB42BFF488AE30215A1C2E92B8
:1054000019702E9B9D42F9D87FE6129B934200F3C0
:105410008381119BD80740F15A82189B02EB030B42
:10542000119B590502D5002A00F3638267272BEAF6
:10543000EB73DDF858900793002313931193C5E69F
:10544000119B42462946CDF818B05546CDF8289014
:10545000594FDDF84C90DDF87480DDF85CA0DDF884
:1054600024B073B3B9F1000F77D009F1FF39319847
:105470001C9B013041440728C2E900383291319029
:1054800060DC0832069B9AF800005E1B8642A8BFCB
:105490000646002E0BDD3198314401300728C2E961
:1054A0000056329131905EDC9AF800000832002EEE
:1054B000B4BF0446841B002C14DC0544119B002B54
:1054C000D0D1B9F1000FD0D1CDF85CA0AA46DDF85B
:1054D00018B09046DA450D4628BFDA46DDF8289028
:1054E000FFF773BA102CC8BF3E46319805DC55E271
:1054F000103C102C02F1080216DD1023013010318F
:105500000728CDE9310117605360F1DD584608994D
:1055100030AA00F0FBFA00287EF49CADDDE93101F1
:10552000103C102C33AAE8DC013021440728CDE9D7
:1055300031011660546000F387809AF80000083249
:105540000544BBE75846089930AA00F0DFFA002866
:105550007EF480AD329933AA94E7119B0AF1FF3AA9
:10556000013B119383E75846089930AA00F0CEFA20
:1055700000287EF46FAD9AF80000329933AA96E7BE
:105580002D228DF89720FEF72FBE15460133169A6F
:105590003544072BCDE93135C8F80020C8F8046040
:1055A00000F34A8108F10808FFF707BA000030400D
:1055B0000000E03F78950008989500081D9B1C9915
:1055C000F61A1A46304601F099FE179A537813B12D
:1055D0001346013317934FF0000E38E40023099867
:1055E0001946009429AA03F059FDB0F1FF3F834604
:1055F00000F01A81069B2993C1E4CDE910BB9DF808
:1056000097200E96CDF81CB0CDF828B0CDF84CB050
:10561000CDF834B0FEF7FABD30AADDE9081000F08D
:1056200075FA00287FF4B3A8279A329D0DF1CC08B3
:10563000FFF7B6BA0D932D22DDE91434229304F15D
:1056400000431E92239318E65846089930AA00F0AA
:105650005DFA00287EF4FEAC9AF80000329933AA75
:1056600005442BE77823EBE530AADDE9081000F0CC
:105670004DFA00287FF48BA8329D0DF1CC08FFF77E
:1056800095B930AADDE9081000F040FA00287FF44F
:105690007EA8279C329D0DF1CC08FFF7ACB9AE492E
:1056A0001691FEF7EDBD00230A93FEF7FDBB30AA6D
:1056B000DDE9081000F02AFA00287FF468A8279C8A
:1056C000129B329D0DF1CC081C1BFFF7ABB9119B4F
:1056D000DB077FF576AE472485190CE5119B109901
:1056E0000A9A03F00103002943EA020340F36D81A3
:1056F000002B40F024816627DDF840B0119B5A054D
:1057000000F1F8802BEAEB73DDF85890079393E6ED
:10571000914A1692FFF71BB9129B189A03EB020BE2
:10572000109B002B40F330816727E7E75642103289
:1057300050DA8A4C1027169404E008F10808103E4D
:10574000102E49DD01331035072BC8E90047CDE99C
:105750003135F2DDDDE9081030AA00F0D7F9002874
:105760007FF415A8DDE931350DF1CC08E7E7089B9A
:105770005B6EDD0707D4089B9B899C0503D4089BBF
:10578000986DFDF7E1FE4FF0FF330B93FEF773BC0E
:1057900000230D9343AB069304E4109B2E93079BC9
:1057A00016F8012CD97B33468A4209D1302003F800
:1057B000010C2E9B5A1E2E9213F8012C9142F6D00A
:1057C000392A0BBF079A0132927AD2B203F8012C20
:1057D0003346BFE5614A16920133169A3544072BCA
:1057E000CDE93135C8F80020C8F804607FF7EDA98D
:1057F000DDE9081030AA00F089F900287EF4C7AF6F
:10580000DDE931350DF1CC08FEF7D5BF00286DD1AB
:1058100030228DF8AA200DF1AB02303302F8013BA3
:105820002AABD31A1B93BCE4089AB2F90C3043F0AC
:1058300040039381FEF717BC30AADDE9081000F0A1
:1058400065F900287EF4A3AF329D0DF1CC08FFF777
:10585000B4B8119BDD077FF5B4AD069B3C469D199E
:1058600049E40998591CFDF7DBFF06900028DBD0BE
:10587000069B0D93F4E4394A1692FEF734BF0123D8
:10588000374A2793374B612F18BF1A4607920CE50A
:1058900006230A93FFF7EBB9119BDC077FF58AAC6F
:1058A00086E4159B0021002BB8BF2D224FF0030B7F
:1058B000A8BF9DF897202C4C2C4BB8BF8DF8972093
:1058C00029F080090D91CDF81CB0FEF797BC9346E6
:1058D000A6E50022DDE922010023FBF7A7FB002853
:1058E0007FF407ACC6F10106279603E40DF1AA0286
:1058F00093E7672717990B78FF2B7CD00024109A29
:10590000204603E001300131FF2B08D0934206DA34
:10591000D21A4B78002BF5D10B780134F4E7CDE99E
:10592000102017911394119A139BDDF8589013448B
:105930001D9A02FB03BB2BEAEB73079346E4189B0B
:10594000CF183A4493466627D8E6DDF81C90DDF878
:1059500028B0FFF714BB00BFA89500089895000871
:1059600064950008789500085C950008609500082B
:105970000A9B73279B469DF897200E9607930A90E3
:1059800013901190FEF742BCC3F101039B442BEA34
:10599000EB736727DDF8589007934DE51C4EC3E580
:1059A0007021FFF7C6BB0E996378144651F8042B9B
:1059B00042EAE2720E910A92FEF774BA02231B9336
:1059C000FFF7EFBB124A1692E0E5DDF8589023B9D5
:1059D000012366279B4607932EE5189BDDF828B028
:1059E0005F1CBB442BEAEB736627079324E5084B47
:1059F0001693FFF744BB00231393119393E7DDE95C
:105A0000082B938943F040039381FEF723BB00BF2B
:105A100098950008F0B50026ADF26C4D1AAD4FF424
:105A200080641F46009504950696154606468B89A8
:105A300016A823F00203ADF80C304B6E05941993B1
:105A4000CB890294ADF80E30CB690C4607934B6AB4
:105A50000993FDF773FD2A463B4669463046FEF73B
:105A6000A3F9051E07DB6946304601F05BF9002803
:105A700018BF4FF0FF35BDF80C305B0603D5A38986
:105A800043F04003A3811698FDF75AFD28460DF216
:105A90006C4DF0BD2DE9F84F4B6E90469C042ED511
:105AA000936812684BB30D46064602F1080959E99E
:105AB000022A5FEA9A0716D00024A2F1040B01E043
:105AC000A7420ED02A4630465BF8041F01F068FB5F
:105AD000431C04F10104F3D10023C8E90133BDE8FC
