:020000040800F2
:100000000050002031290008192700081F27000888
:10001000252700082B2700083127000800000000D2
:10002000000000000000000000000000372700086A
:1000300043270008000000004F2700085D27000844
:100040007929000879290008792900087929000808
:1000500079290008792900087929000879290008F8
:1000600079290008812700088F27000879290008CE
:1000700079290008792900087929000879290008D8
:1000800079290008792900087929000879290008C8
:100090007929000879290008792900089D27000896
:1000A00079290008792900087929000879290008A8
:1000B000B127000879290008792900087929000862
:1000C0007929000879290008792900087929000888
:1000D0007929000879290008792900087929000878
:1000E000C5270008792900087929000800000000C8
:1000F0000000000000000000000000000000000000
:0C01000000000000000000005FF808F1A3
:1001100081F0004102E000BF83F0004330B54FEAB8
:1001200041044FEA430594EA050F08BF90EA020F25
:100130001FBF54EA000C55EA020C7FEA645C7FEAB8
:10014000655C00F0E2804FEA5454D4EB5555B8BFDB
:100150006D420CDD2C4480EA020281EA030382EA4C
:10016000000083EA010180EA020281EA0303362DDE
:1001700088BF30BD11F0004F4FEA01314FF4801CB1
:100180004CEA113102D0404261EB410113F0004FC3
:100190004FEA03334CEA133302D0524263EB43037A
:1001A00094EA050F00F0A780A4F10104D5F1200E18
:1001B0000DDB02FA0EFC22FA05F2801841F1000173
:1001C00003FA0EF2801843FA05F359410EE0A5F147
:1001D00020050EF1200E012A03FA0EFC28BF4CF078
:1001E000020C43FA05F3C01851EBE37101F000452E
:1001F00007D54FF0000EDCF1000C7EEB00006EEB3B
:100200000101B1F5801F1BD3B1F5001F0CD34908C4
:100210005FEA30004FEA3C0C04F101044FEA44521B
:1002200012F5800F80F09A80BCF1004F08BF5FEAA2
:10023000500C50F1000041EB045141EA050130BD82
:100240005FEA4C0C404141EB0101013C28BFB1F594
:10025000801FE9D291F0000F04BF01460020B1FADF
:1002600081F308BF2033A3F10B03B3F120020CDAB2
:100270000C3208DD02F1140CC2F10C0201FA0CF090
:1002800021FA02F10CE002F11402D8BFC2F1200CF5
:1002900001FA02F120FA0CFCDCBF41EA0C019040AB
:1002A000E41AA2BF01EB0451294330BD6FEA0404F4
:1002B0001F3C1CDA0C340EDC04F11404C4F12002DF
:1002C00020FA04F001FA02F340EA030021FA04F3F1
:1002D00045EA030130BDC4F10C04C4F1200220FA48
:1002E00002F001FA04F340EA0300294630BD21FA86
:1002F00004F0294630BD94F0000F83F4801306BF4C
:1003000081F480110134013D4EE77FEA645C18BF3F
:100310007FEA655C29D094EA050F08BF90EA020FD6
:1003200005D054EA000C04BF1946104630BD91EACE
:10033000030F1EBF0021002030BD5FEA545C05D1D1
:100340004000494128BF41F0004130BD14F5800410
:100350003CBF01F5801130BD01F0004545F0FE4184
:1003600041F470014FF0000030BD7FEA645C1ABFB9
:10037000194610467FEA655C1CBF0B46024650EAF0
:10038000013406BF52EA033591EA030F41F400211C
:1003900030BD00BF90F0000F04BF0021704730B5A2
:1003A0004FF4806404F132044FF000054FF0000177
:1003B00050E700BF90F0000F04BF0021704730B538
:1003C0004FF4806404F1320410F0004548BF40420D
:1003D0004FF000013EE700BF42004FEAE2014FEA62
:1003E00031014FEA02701FBF12F07F4393F07F4F3D
:1003F00081F06051704732F07F4208BF704793F040
:100400007F4F04BF41F40021704730B54FF4607452
:1004100001F0004521F000411CE700BF50EA010255
:1004200008BF704730B54FF000050AE050EA0102FE
:1004300008BF704730B511F0004502D5404261EB6E
:1004400041014FF4806404F132045FEA915C3FF4AF
:10045000D8AE4FF003025FEADC0C18BF03325FEA4C
:10046000DC0C18BF033202EBDC02C2F1200300FAFD
:1004700003FC20FA02F001FA03FE40EA0E0021FA22
:1004800002F11444BDE600BF4A0011D212F5001279
:1004900011D20DD56FF47873B3EB62520ED44FEADC
:1004A000C12343F0004343EA505323FA02F070475C
:1004B0004FF00000704750EA013002D14FF0FF309A
:1004C00070474FF00000704780F0004002E000BF2E
:1004D00081F0004142001FBF5FEA410392EA030F2F
:1004E0007FEA226C7FEA236C6AD04FEA1262D2EB79
:1004F0001363C1BFD218414048404140B8BF5B427E
:10050000192B88BF704710F0004F40F4000020F016
:100510007F4018BF404211F0004F41F4000121F02C
:100520007F4118BF494292EA030F3FD0A2F1010276
:1005300041FA03FC10EB0C00C3F1200301FA03F1B4
:1005400000F0004302D5494260EB4000B0F5000FD7
:1005500013D3B0F1807F06D340084FEA310102F196
:100560000102FE2A51D2B1F1004F40EBC25008BF48
:1005700020F0010040EA03007047490040EB000012
:10058000013A28BFB0F5000FEDD2B0FA80FCACF113
:10059000080CB2EB0C0200FA0CF0AABF00EBC25040
:1005A00052421843BCBFD0401843704792F0000F2E
:1005B00081F4000106BF80F400000132013BB5E781
:1005C0004FEA41037FEA226C18BF7FEA236C21D0F7
:1005D00092EA030F04D092F0000F08BF084670475C
:1005E00090EA010F1CBF0020704712F07F4F04D12A
:1005F000400028BF40F00040704712F100723CBF3D
:1006000000F50000704700F0004343F0FE4040F466
:10061000000070477FEA226216BF08467FEA236324
:100620000146420206BF5FEA412390EA010F40F40F
:10063000800070474FF0000304E000BF10F000435B
:1006400048BF40425FEA000C08BF704743F0964342
:1006500001464FF000001CE050EA010208BF70475D
:100660004FF000030AE000BF50EA010208BF7047E4
:1006700011F0004302D5404261EB41015FEA010CF9
:1006800002BF84460146002043F0B64308BFA3F1F1
:100690008053A3F50003BCFA8CF2083AA3EBC253D3
:1006A00010DB01FA02FC634400FA02FCC2F12002F2
:1006B000BCF1004F20FA02F243EB020008BF20F029
:1006C0000100704702F1200201FA02FCC2F120028F
:1006D00050EA4C0021FA02F243EB020008BF20EA84
:1006E000DC7070474FF0FF0C1CEAD0521EBF1CEAB2
:1006F000D15392EA0C0F93EA0C0F6FD01A4480EAA0
:10070000010C400218BF5FEA41211ED04FF0006388
:1007100043EA501043EA5111A0FB01310CF00040B4
:10072000B1F5000F3EBF490041EAD3715B0040EADA
:10073000010062F17F02FD2A1DD8B3F1004F40EBAA
:10074000C25008BF20F00100704790F0000F0CF07D
:10075000004C08BF49024CEA502040EA51207F3A41
:10076000C2BFD2F1FF0340EAC250704740F400001C
:100770004FF00003013A5DDC12F1190FDCBF00F00D
:1007800000407047C2F10002410021FA02F1C2F1BB
:10079000200200FA02FC5FEA310040F1000053EA57
:1007A0004C0308BF20EADC70704792F0000F00F0A5
:1007B000004C02BF400010F4000F013AF9D040EAAB
:1007C0000C0093F0000F01F0004C02BF490011F43F
:1007D000000F013BF9D041EA0C018FE70CEAD1533D
:1007E00092EA0C0F18BF93EA0C0F0AD030F0004CBD
:1007F00018BF31F0004CD8D180EA010000F0004071
:10080000704790F0000F17BF90F0004F084691F02E
:10081000000F91F0004F14D092EA0C0F01D1420268
:100820000FD193EA0C0F03D14B0218BF084608D131
:1008300080EA010000F0004040F0FE4040F400007B
:10084000704740F0FE4040F4400070474FF0FF0C0E
:100850001CEAD0521EBF1CEAD15392EA0C0F93EA55
:100860000C0F69D0A2EB030280EA010C49024FEAA7
:10087000402037D04FF0805343EA111143EA101360
:100880000CF000408B4238BF5B0042F17D024FF418
:10089000000C8B4224BF5B1A40EA0C00B3EB510FF3
:1008A00024BFA3EB510340EA5C00B3EB910F24BFDC
:1008B000A3EB910340EA9C00B3EBD10F24BFA3EB61
:1008C000D10340EADC001B0118BF5FEA1C1CE0D129
:1008D000FD2A3FF650AF8B4240EBC25008BF20F0DC
:1008E000010070470CF0004C4CEA50207F32C2BF30
:1008F000D2F1FF0340EAC250704740F400004FF0CD
:100900000003013A37E792F0000F00F0004C02BFFD
:10091000400010F4000F013AF9D040EA0C0093F0C7
:10092000000F01F0004C02BF490011F4000F013B21
:10093000F9D041EA0C0195E70CEAD15392EA0C0F89
:1009400008D142027FF47DAF93EA0C0F7FF470AFC1
:10095000084676E793EA0C0F04D14B023FF44CAF04
:1009600008466EE730F0004C18BF31F0004CCAD199
:1009700030F000427FF45CAF31F000437FF43CAFD5
:100980005FE700BF42000ED2B2F1FE4F0BD34FF033
:100990009E03B3EB126209D44FEA002343F00043F5
:1009A00023FA02F070474FF00000704712F1610F18
:1009B00001D1420202D14FF0FF3070474FF00000EA
:1009C000704700BF844641EA000313F0030349D196
:1009D000403A23D30B6803604B6843608B688360A5
:1009E000CB68C3600B6903614B6943618B698361A9
:1009F000CB69C3610B6A03624B6A43628B6A836291
:100A0000CB6AC3620B6B03634B6B43638B6B836378
:100A1000CB6BC36340304031403ADBD230320BD332
:100A20000B6803604B6843608B688360CB68C3606E
:100A300010301031103AF3D20C3205D351F8043B88
:100A400040F8043B043AF9D2043208D0D2071CBF64
:100A500011F8013B00F8013B01D30B88038060468D
:100A6000704700BF082A13D38B07B1D010F00303DF
:100A7000AED0C3F10403D21ADB071CBF11F8013B4F
:100A800000F8013BA4D331F8023B20F8023B9FE77A
:100A9000043AD9D3013A11F8013B00F8013BF9D2ED
:100AA0000B7803704B7843708B7883706046704787
:100AB00070B54FF0FF0C4CF4E06C1CEA11541DBFF4
:100AC0001CEA135594EA0C0F95EA0C0F00F0DEF8BF
:100AD0002C4481EA030621EA4C5123EA4C5350EAA4
:100AE000013518BF52EA033541F4801143F48013F5
:100AF00038D0A0FB02CE4FF00005E1FB02E506F086
:100B00000042E0FB03E54FF00006E1FB03569CF0DA
:100B1000000F18BF4EF0010EA4F1FF04B6F5007FE0
:100B200064F5407404D25FEA4E0E6D4146EB060652
:100B300042EAC62141EA55514FEAC52040EA5E50DB
:100B40004FEACE2EB4F1FD0C88BFBCF5E06F1ED885
:100B5000BEF1004F08BF5FEA500E50F1000041EBBC
:100B6000045170BD06F0004646EA010140EA020069
:100B700081EA0301B4EB5C04C2BFD4EB0C0541EA8B
:100B8000045170BD41F480114FF0000E013C00F3A0
:100B9000AB8014F1360FDEBF002001F0004170BDC4
:100BA000C4F10004203C35DA0C341BDC04F11404DD
:100BB000C4F1200500FA05F320FA04F001FA05F269
:100BC00040EA020001F0004221F0004110EBD37036
:100BD00021FA04F642EB06015EEA430E08BF20EA62
:100BE000D37070BDC4F10C04C4F1200500FA04F305
:100BF00020FA05F001FA04F240EA020001F0004197
:100C000010EBD37041F100015EEA430E08BF20EA09
:100C1000D37070BDC4F1200500FA05F24EEA020E51
:100C200020FA04F301FA05F243EA020321FA04F080
:100C300001F0004121FA04F220EA020000EBD37037
:100C40005EEA430E08BF20EAD37070BD94F0000F37
:100C50000FD101F00046400041EB010111F4801F6B
:100C600008BF013CF7D041EA060195F0000F18BF1C
:100C7000704703F00046520043EB030313F4801F58
:100C800008BF013DF7D043EA0603704794EA0C0F12
:100C90000CEA135518BF95EA0C0F0CD050EA410628
:100CA00018BF52EA4306D1D181EA030101F00041A5
:100CB0004FF0000070BD50EA410606BF10461946CD
:100CC00052EA430619D094EA0C0F02D150EA0136D9
:100CD00013D195EA0C0F05D152EA03361CBF10461A
:100CE00019460AD181EA030101F0004141F0FE41B9
:100CF00041F470014FF0000070BD41F0FE4141F43D
:100D0000780170BD70B54FF0FF0C4CF4E06C1CEA3C
:100D100011541DBF1CEA135594EA0C0F95EA0C0FF1
:100D200000F0A7F8A4EB050481EA030E52EA0335AC
:100D30004FEA013100F088804FEA03334FF08055CD
:100D400045EA131343EA12634FEA022245EA1115FA
:100D500045EA10654FEA00260EF000419D4208BFAB
:100D6000964244F1FD0404F5407402D25B084FEA58
:100D70003202B61A65EB03055B084FEA32024FF404
:100D800080104FF4002CB6EB020E75EB030E22BF61
:100D9000B61A754640EA0C005B084FEA3202B6EB21
:100DA000020E75EB030E22BFB61A754640EA5C00D0
:100DB0005B084FEA3202B6EB020E75EB030E22BF60
:100DC000B61A754640EA9C005B084FEA3202B6EB61
:100DD000020E75EB030E22BFB61A754640EADC0020
:100DE00055EA060E18D04FEA051545EA16754FEA82
:100DF00006164FEAC30343EA52734FEAC2025FEAA0
:100E00001C1CC0D111F4801F0BD141EA00014FF02E
:100E100000004FF0004CB6E711F4801F04BF0143FF
:100E20000020B4F1FD0C88BFBCF5E06F3FF6AFAE1B
:100E3000B5EB030C04BFB6EB020C5FEA500C50F1AB
:100E4000000041EB045170BD0EF0004E4EEA11312E
:100E500014EB5C04C2BFD4EB0C0541EA045170BD35
:100E600041F480114FF0000E013C90E645EA060E79
:100E70008DE60CEA135594EA0C0F08BF95EA0C0FA7
:100E80003FF43BAF94EA0C0F0AD150EA01347FF4EF
:100E900034AF95EA0C0F7FF425AF104619462CE7C6
:100EA00095EA0C0F06D152EA03353FF4FDAE104629
:100EB000194622E750EA410618BF52EA43067FF47A
:100EC000C5AE50EA41047FF40DAF52EA43057FF40A
:100ED000EBAE12E74FF0FF3C06E000BF4FF0010C15
:100EE00002E000BF4FF0010C4DF804CD4FEA410C79
:100EF0007FEA6C5C4FEA430C18BF7FEA6C5C1BD046
:100F000001B050EA410C0CBF52EA430C91EA030FC6
:100F100002BF90EA020F0020704710F1000F91EA23
:100F2000030F58BF994208BF90422CBFD8176FEAF1
:100F3000E37040F0010070474FEA410C7FEA6C5CBF
:100F400002D150EA013C07D14FEA430C7FEA6C5CC6
:100F5000D6D152EA033CD3D05DF8040B704700BFF2
:100F60008446104662468C461946634600E000BF40
:100F700001B5FFF7B7FF002848BF10F1000F01BD12
:100F80004DF808EDFFF7F4FF0CBF012000205DF8DD
:100F900008FB00BF4DF808EDFFF7EAFF34BF012062
:100FA00000205DF808FB00BF4DF808EDFFF7E0FFFB
:100FB00094BF012000205DF808FB00BF4DF808ED4C
:100FC000FFF7CEFF94BF012000205DF808FB00BFB3
:100FD0004DF808EDFFF7C4FF34BF012000205DF895
:100FE00008FB00BF4FEA410C7FEA6C5C02D150EA7B
:100FF000013C0AD14FEA430C7FEA6C5C02D152EA11
:10100000033C02D14FF0000070474FF001007047E1
:101010004FEA410212F5001215D211D56FF4787320
:10102000B3EB625212D94FEAC12343F0004343EAC3
:10103000505311F0004F23FA02F018BF404270479E
:101040004FF00000704750EA013005D111F0004028
:1010500008BF6FF0004070474FF00000704700BFBE
:101060000348044B834202D0034B03B11847704737
:10107000C4060020C4060020000000000548064BFE
:101080001B1AD90F01EBA301491002D0034B03B186
:1010900018477047C4060020C40600200000000066
:1010A00010B5064C237843B9FFF7DAFF044B13B1B0
:1010B0000448AFF300800123237010BDC406002054
:1010C0000000000018B1000808B5054B1BB1054928
:1010D0000548AFF30080BDE80840FFF7CFBF00BF71
:1010E00000000000C806002018B1000880B485B0D8
:1010F00000AF03460A46FB8013467B71FB88BB8129
:101100007B79BB730A4B93F828300133DAB2084B72
:1011100083F82820064B93F82830013B0449FA68ED
:1011200041F8232000BF1437BD4680BC704700BF84
:10113000E006002080B500AF01220121024801F045
:101140002DFF00BF80BD00BF0008014080B500AF8B
:1011500000220121024801F021FF00BF80BD00BF35
:101160000008014080B582B000AF0346FB71FFF775
:10117000EDFFFB79052B4DD801A252F823F000BFFB
:1011800099110008A3110008AD110008C71100084B
:10119000E1110008FB11000801210A20FFF7A6FF5A
:1011A00038E001213220FFF7A1FF33E001210A20BE
:1011B000FFF79CFF00216420FFF798FF01210A2020
:1011C000FFF794FF26E001210A20FFF78FFF00219F
:1011D0006420FFF78BFF01213220FFF787FF19E022
:1011E00001213220FFF782FF00216420FFF77EFFFC
:1011F00001210A20FFF77AFF0CE001213220FFF7DE
:1012000075FF00216420FFF771FF01213220FFF7F5
:101210006DFF00BF00BF0837BD4680BD80B582B0FE
:1012200000AF6FF0590001F0C5F84FF4487000F0BE
:10123000CFF800F0F7FA0346FB80FB881946154803
:1012400003F008FEFB881D2B1CD85A2001F0B2F8D1
:101250004FF4487000F0BCF800F0E4FA0346FB805D
:10126000FB8819460C4803F0F5FDFB881D2B04D8BC
:10127000002001F09FF8022308E0002001F09AF816
:10128000012303E0002001F095F8002318460837F9
:10129000BD4680BD30B1000844B1000880B582B0C1
:1012A00000AF1D4B1B78002B32D100F0BBFA034678
:1012B000FB801A4803F02EFEFB881D2B25D800BFAB
:1012C000FFF7ACFF03467B717B79002B07D11448F5
:1012D00003F020FE4FF4FA7000F07AF818E07B7902
:1012E000012B07D10F4803F015FE4FF4FA7000F000
:1012F0006FF80DE07B79022B0AD10B4803F00AFE50
:101300004FF4FA7000F064F8DAE7084803F002FEE0
:1013100000BF0837BD4680BD0C07002058B100084B
:101320006CB1000878B1000884B1000890B10008E1
:1013300080B582B000AF0346FB80042001F08EFC34
:10134000FB88034A136000BF0837BD4680BD00BF5D
:101350001007002080B489B000AF78600023BB6123
:10136000194B5B687B61194B1A687B6802FB03F3BE
:101370003B61154B9B68FB61134B9B68FB60FA68F4
:10138000FB699A42F8D0FA68FB699A4206D2FA6978
:10139000FB68D31ABA691344BB6107E07A69FB683A
:1013A000D21AFB691344BA691344BB61FB68FB6141
:1013B000BA693B699A4200D2DEE700BF00BF24371A
:1013C000BD4680BC704700BF10E000E01007002061
:1013D00080B584B000AF0346FB80FB88154AA2FBB2
:1013E00003239B099BB2FB60FA88124BA3FB0213F9
:1013F00099090B469B010B44D31A9BB2BB6006E0D4
:101400004FF6E850FFF7A6FFFB68013BFB60FB6867
:10141000002BF5D1BB68002B07D0BB684FF47A7264
:1014200002FB03F31846FFF795FF00BF1037BD46D8
:1014300080BD00BFFDC00FFC80B500AF01220221BE
:10144000024801F0ABFD00BF80BD00BF00080140B5
:10145000B0B586B000AF0346FB80FB88B3F5005FF4
:1014600000F0C680B3F5005F00F39481B3F5805FB0
:1014700016D0B3F5805F00F38D81402B00F08C8196
:10148000402B00F38781202B00F08881202B00F374
:101490008181082B00F08481102B00F0838179E199
:1014A000A34B9B7A002B07D1A24B9B68A04A1360E9
:1014B0009F4B01229A7277E19D4B9B7A012B40F062
:1014C00073819B4B00229A729A4B9B68984A536097
:1014D000974B1B89002B17D1954B1A68944B5B686F
:1014E000D31A1846FEF756FF8DA3D3E90023FFF762
:1014F000DFFA02460B4610461946FEF7C5FF0346C3
:10150000DAB28B4B5A746FE0894B1B89012B2CD1BB
:10151000874B1B681846FEF73DFF83A3D3E90023E2
:10152000FEF7FCFD02460B4614461D46804B5B68E9
:101530001846FEF72FFF02460B4620462946FEF7C7
:10154000EBFD02460B461046194675A3D3E900236E
:10155000FFF7AEFA02460B4610461946FEF794FF17
:101560000346DAB2724B5A743EE0714B1B68184660
:10157000FEF710FF6CA3D3E90023FEF7CFFD024670
:101580000B4614461D466A4B5B681846FEF702FF81
:1015900002460B4620462946FEF7BEFD02460B4694
:1015A000104619465EA3D3E90023FFF781FA0246ED
:1015B0000B4614461D465E4B1B895A1E13461B01E3
:1015C00013441846FEF7F6FE02460B46204629460F
:1015D000FEF7A4FD02460B4610461946FEF754FFDF
:1015E0000346DAB2524B5A74514B00221A81DBE0A7
:1015F000514B1B78002B09D14F4B1B780133DAB2CA
:101600004D4B1A704D4B00225A62CFE04A4B1B786B
:10161000012B1ED14A4B1B685B6AFB60FB68B3F56C
:10162000FA5F0ED9FB6843F69722934209D8424BE2
:101630001B780133DAB2404B1A70404B00225A62D9
:10164000A7E0F9683F4803F005FC3B4B00221A7005
:10165000ACE0394B1B78022B2ED1394B1B685B6AEF
:101660003B613969384803F0F5FB3B6940F6B83215
:10167000934209D9304B1B780133DAB22E4B1A70E2
:10168000324B00221A6091E03B6940F6B732934238
:101690000BD83B6940F2DC52934206D9264B4222DA
:1016A0001A702B4803F036FC73E02A4803F032FC32
:1016B000214B00221A7079E01F4B1B78412B4DD82B
:1016C0001D4B1B780133DAB21B4B1A701A4B1B7877
:1016D00003F00103DBB2002B04D0194B1B6800227E
:1016E0005A6263E0164B1B685B6A7B6179691A4832
:1016F00003F0B0FB7B69B3F57A7F57D90E4B1B78AB
:101700000333DA0F13445B10033B4FF00042DA401F
:101710000E4B1B6813430D4A136047E0AFF3008084
:1017200092C5A28E33F22E3F00000000F093F140EC
:101730001407002010E000E0CE0800200004004064
:10174000B807002040B2000848B20008D0080020C6
:1017500058B2000868B2000874B20008164B1B7833
:10176000422B0CD1154B1B681946154803F072FB30
:10177000144B01221A70104B00221A7016E00E4B07
:101780001B781946104803F065FB0B4B00221A70BA
:101790000CE00BE000BF0AE000BF08E000BF06E07D
:1017A00000BF04E000BF02E000BF00E000BF00BFD8
:1017B0001837BD46B0BD00BFCE080020D0080020BD
:1017C0007CB20008CF08002090B2000880B500AFBE
:1017D00001224FF40041074801F0E0FB3220FFF7FF
:1017E000B9FD00224FF40041024801F0D7FB00BFD1
:1017F00080BD00BF0008014080B483B000AF034645
:10180000FB80074AFB889381054AFB88D381044B00
:1018100001221A7400BF0C37BD4680BC704700BF60
:101820001407002080B400AF024B5B7C1846BD4615
:1018300080BC70471407002080B582B000AF01F073
:101840009DF800F031F84820FFF772FD00F01CFA17
:1018500000F0F0F900F08AF900F06CF800F0ECF814
:1018600000F036F900F0D4FBFFF7E6FD00233B71F2
:1018700000237B710023BB71786800F007FC012214
:101880000121084801F08AFB00F036FC6420FFF7D4
:10189000B3FFC820FFF79CFDFFF700FDC820FFF74E
:1018A00097FDF9E70008014080B590B000AF07F15F
:1018B000180328220021184603F07CFB3B1D002260
:1018C0001A605A609A60DA601A610123BB614FF4B2
:1018D0008033FB6100233B620123BB6202237B63F5
:1018E0004FF48033BB634FF4E013FB6307F118033D
:1018F000184601F083FB0346002B01D000F0A4FA48
:101900000F237B600223BB600023FB604FF48063E6
:101910003B6100237B613B1D0221184601F0F0FD75
:101920000346002B01D000F08FFA00BF4037BD46C0
:1019300080BD000080B592B000AF07F140030022E7
:101940001A605A6007F1240300221A605A609A60F4
:10195000DA601A615A619A613B1D20220021184603
:1019600003F028FB324B334A1A60314B47225A604E
:101970002F4B00229A602E4B44F61F62DA602C4BEC
:1019800000221A612A4B00225A61294B00229A61D7
:10199000274802F02FF80346002B01D000F054FA3C
:1019A00000233B6400237B6407F140031946204871
:1019B00002F0D0FE0346002B01D000F045FA602370
:1019C0007B620023BB620023FB6200237B63002356
:1019D000BB630023FB6307F124030C221946144860
:1019E00002F066FA0346002B01D000F02DFA002326
:1019F0007B600023BB600023FB6000233B6100236E
:101A00007B614FF40053BB6100233B623B1D1946D1
:101A1000074802F0FDFE0346002B01D000F014FA47
:101A2000034800F0D7FD00BF4837BD4680BD00BF6A
:101A300028070020002C014080B586B000AF07F1D8
:101A4000080300221A605A609A60DA603B4600225E
:101A50001A605A601D4B4FF080421A601B4B4722A0
:101A60005A601A4B00229A60184B4FF47A72DA606F
:101A7000164B00221A61154B00229A61134801F09F
:101A8000CDFE0346002B01D000F0DEF94FF4805369
:101A9000BB6007F1080319460C4802F0CBFA034675
:101AA000002B01D000F0D0F900233B6000237B60C5
:101AB0003B461946054802F04DFE0346002B01D077
:101AC00000F0C2F900BF1837BD4680BD7007002086
:101AD00080B586B000AF07F1080300221A605A6093
:101AE0009A60DA603B4600221A605A601D4B1E4A1B
:101AF0001A601C4B47225A601A4B00229A60194BFD
:101B00004FF6FF72DA60174B00221A61154B002264
:101B10009A61144801F082FE0346002B01D000F0C8
:101B200093F94FF48053BB6007F1080319460D4841
:101B300002F080FA0346002B01D000F085F9002363
:101B40003B6000237B603B461946064802F002FEDC
:101B50000346002B01D000F077F900BF1837BD46CF
:101B600080BD00BFB80700200004004080B58AB0E7
:101B700000AF07F1200300221A605A603B1D0022CB
:101B80001A605A609A60DA601A615A619A61274B4A
:101B9000274A1A60254B47225A60244B00229A603C
:101BA000224B40F2E732DA60204B00221A611F4BD1
:101BB00080229A611D4801F01DFF0346002B01D0D1
:101BC00000F042F900233B6200237B6207F120030F
:101BD0001946164802F0BEFD0346002B01D000F066
:101BE00033F960237B600023BB600023FB6000238C
:101BF0007B613B1D002219460C4802F059F903464F
:101C0000002B01D000F020F93B1D042219460748A3
:101C100002F04EF90346002B01D000F015F90348FD
:101C200000F0D8FC00BF2837BD4680BD000800206A
:101C30000008004080B500AF114B124A1A60104BEB
:101C40004FF4E1325A600E4B00229A600C4B002296
:101C5000DA600B4B00221A61094B0C225A61084BC7
:101C600000229A61064B0022DA61054802F033FE39
:101C70000346002B01D000F0E7F800BF80BD00BF95
:101C8000480800200038014080B588B000AF07F157
:101C9000100300221A605A609A60DA60644B9B69F4
:101CA000634A43F010039361614B9B6903F0100397
:101CB000FB60FB685E4B9B695D4A43F020039361C8
:101CC0005B4B9B6903F02003BB60BB68584B9B696F
:101CD000574A43F004039361554B9B6903F0040397
:101CE0007B607B68524B9B69514A43F008039361C8
:101CF0004F4B9B6903F008033B603B68002248F2AE
:101D000083014C4801F04AF9002240F233314A483D
:101D100001F044F94FF460433B6100237B610023F1
:101D2000BB6107F110031946444800F0B3FF48F2C5
:101D300083033B6101237B610023BB610223FB61C1
:101D400007F1100319463B4800F0A4FF30233B6124
:101D50003B4B7B610023BB6107F1100319463548FB
:101D600000F098FF40233B61364B7B610023BB6151
:101D700007F1100319462F4800F08CFF40F233336F
:101D80003B6101237B610023BB610223FB6107F1FF
:101D900010031946284800F07DFF4FF480533B6143
:101DA00000237B610023BB6107F110031946224821
:101DB00000F070FF42F208033B61214B7B6100237E
:101DC000BB6107F1100319461B4800F063FF4FF495
:101DD00080533B611A4B7B610223BB6107F1100307
:101DE0001946144800F056FF00220121092000F096
:101DF000FEFE092000F017FF002201210A2000F05A
:101E0000F6FE0A2000F00FFF00220121172000F04B
:101E1000EEFE172000F007FF00220121282000F02D
:101E2000E6FE282000F0FFFE00BF2037BD4680BD43
:101E30000010024000080140000C01400010014069
:101E4000000031100000111080B400AF72B600BF66
:101E5000FEE7000080B487B000AF78607B68002B9D
:101E600005DD4FF4FA73FB820023BB8206E00023FA
:101E7000FB820023BB827B685B427B607B689BB2FA
:101E80001A46920013449BB2BB81FB8AFB81BB8A3A
:101E90003B820F4B93F83C300133DAB20C4B83F8A2
:101EA0003C200B4B93F83C305A1E094913465B000B
:101EB00013445B000B441A4607F10C0318681060CA
:101EC0009B88938000BF1C37BD4680BC704700BF15
:101ED0009008002080B58AB000AF78607B68002B46
:101EE0000CDB01224FF400711E4801F057F800226C
:101EF0004FF480711B4801F051F80EE000224FF4BE
:101F00000071184801F04AF801224FF48071154819
:101F100001F044F87B685B427B6007F10C03002210
:101F20001A605A609A60DA601A615A619A61602395
:101F3000FB607B683B6100237B610023FB61042124
:101F4000094801F049FE07F10C030422194606482E
:101F500001F0AEFF0421044801F09CFD00BF2837CA
:101F6000BD4680BD000C01400008002080B58AB04D
:101F700000AF78607B68002B0ADB012210211D482E
:101F800001F00CF8002220211A4801F007F80CE0BB
:101F900000221021174801F001F8012220211548E4
:101FA00000F0FCFF7B685B427B6007F10C030022C2
:101FB0001A605A609A60DA601A615A619A61602305
:101FC000FB607B683B6100237B610023FB61002198
:101FD000094801F001FE07F10C03002219460648EA
:101FE00001F066FF0021044801F054FD00BF2837CE
:101FF000BD4680BD000C01400008002080B500AF48
:102000000020FFF767FF0020FFF7B0FF00BF80BD93
:1020100080B500AF024801F051FC00BF80BD00BF99
:10202000B807002080B400AF034B1B681B0ADBB26B
:102030001846BD4680BC7047D008002080B400AF71
:10204000064B1B78002B04D0044B00221A7001238E
:1020500000E000231846BD4680BC7047CF08002032
:1020600080B584B000AFF860B9607A607B689AB2DE
:102070004FF0FF33B968044802F07DFC7B681846D6
:102080001037BD4680BD00BF4808002080B582B033
:1020900000AF78603B79002B05D001220221144863
:1020A00000F07CFF04E000220221114800F076FFDE
:1020B0007B79002B05D0012201210D4800F06EFF35
:1020C00004E0002201210A4800F068FFBB79002BE0
:1020D00005D001228021074800F060FF04E00022C3
:1020E0008021044800F05AFF00BF0837BD4680BD7C
:1020F000000C01400008014080B500AF024801F02B
:1021000027FC00BF80BD00BF7007002080B584B0F1
:1021100000AF78607B681B68B3F1804F40F02E8180
:10212000984B1B7C012B0FD1964BDB89013B9AB25C
:10213000944BDA81934BDB89002B05D1914B9A8923
:10214000904BDA81FFF742FB8F4B93F82830002B3E
:1021500034D08D4B93F82830013B8B4A32F8233032
:10216000002B0CD0884B93F82830013B864A32F87C
:102170002320013A91B2844A22F823101EE0824BB8
:1021800093F82830013BDAB27F4B83F828207E4B4E
:1021900093F82830002B02D1FEF7CCFF0EE07A4BEB
:1021A00093F82830013B784A9B0013449B78002B1E
:1021B00002D0FEF7CBFF01E0FEF7BCFF734B93F8B4
:1021C0003C30002B51D0714B93F83C305A1E6F4974
:1021D00013465B0013445B000B440233B3F9003039
:1021E0001846FFF777FE694B93F83C305A1E674953
:1021F00013465B0013445B000B440433B3F9003017
:102200001846FFF7B3FE614B93F83C305A1E5F4906
:1022100013465B0013445B000B441B88002B15D056
:102220005A4B93F83C305A1E584913465B001344EE
:102230005B000B441B88013B98B2544913465B007A
:1022400013445B000B4402461A800EE04F4B93F898
:102250003C30013BDAB24D4B83F83C204B4B93F8BA
:102260003C30002B01D1FFF7C9FE494B1B78012BF5
:102270000BD16FF05900FFF7EDFD454B1B7843F094
:102280000203DAB2424B1A700DE0424B1B78012B6D
:1022900009D15A20FFF7DEFD3E4B1B7843F00203C5
:1022A000DAB23C4B1A70FFF7C9FE0346002B65D02B
:1022B000FFF7B8FE0346FB73FB7B002B15D1364BB3
:1022C0001B78002B03D00120FEF74CFF02E000201A
:1022D000FEF748FF304B1B78002B0CBF0123002377
:1022E000DBB21A462C4B1A7048E02B4B1B78002BA4
:1022F00044D0FB7BA02B3AD0A02B3EDC902B16D0F9
:10230000902B3ADC802B06D0802B36DC202B18D08B
:10231000602B21D031E0214802F0FCFD4FF4967093
:10232000FFF7D8FD4FF49670FFF720FE26E01C481B
:1023300002F0F0FD1B48FFF7CDFD1A48FFF716FE2F
:102340001CE0194802F0E6FD4FF49670FFF7C2FD5D
:102350001448FFF70BFE11E0144802F0DBFD4FF4C8
:102360009670FFF7B7FD0F48FFF700FE06E0104834
:1023700002F0D0FDFFF742FE00E000BF1037BD467F
:1023800080BD00BF14070020E00600209008002058
:102390000A0700200B0700200C070020A0B200084D
:1023A000B0B20008D4FEFFFFC0B20008D0B20008EF
:1023B000E0B2000890B58BB000AF0346FB7140F26D
:1023C000DC53FB8497F90730002B1FDAFB8C18468F
:1023D000FEF734F9044697F907301846FEF72EF950
:1023E00003462A491846FEF731FA0346284918469B
:1023F000FEF778F9034619462046FEF76BF80346C8
:102400001846FEF7BFFA0346FB841EE0FB8C184615
:10241000FEF714F9044697F907301846FEF70EF94F
:1024200003461C491846FEF711FA03461849184698
:10243000FEF758F9034619462046FEF749F80346C9
:102440001846FEF79FFA0346FB8407F108030022B3
:102450001A605A609A60DA601A615A619A61602360
:10246000BB60FB8CFB6000233B610023BB6107F179
:1024700008030C221946084801F01AFD0C210648F1
:1024800001F008FB00BF2C37BD4690BD0000B4C270
:1024900000007A440000B4422807002080B485B0D0
:1024A00000AF154B9B69144A43F001039361124B33
:1024B0009B6903F00103BB60BB680F4BDB690E4AED
:1024C00043F08053D3610C4BDB6903F080537B6096
:1024D0007B680A4B5B68FB60FB6823F0E063FB6092
:1024E000FB6843F00073FB60044AFB68536000BF65
:1024F0001437BD4680BC7047001002400000014008
:1025000080B485B000AF78607B681B68124A934244
:102510000CD1124B9B69114A43F4006393610F4B3A
:102520009B6903F40063FB60FB6810E07B681B6839
:102530000B4A93420BD1094BDB69084A43F0040371
:10254000D361064BDB6903F00403BB60BB6800BFCB
:102550001437BD4680BC7047002C0140001002407B
:102560000008004080B584B000AF78607B681B68CD
:10257000B3F1804F14D1154BDB69144A43F00103CA
:10258000D361124BDB6903F00103FB60FB6800229F
:102590000F211C2000F02BFB1C2000F044FB10E05E
:1025A0007B681B680A4A93420BD1084BDB69074AD8
:1025B00043F00203D361054BDB6903F00203BB6008
:1025C000BB6800BF1037BD4680BD00BF0010024091
:1025D0000004004080B588B000AF786007F11003B8
:1025E00000221A605A609A60DA607B681B681F4A92
:1025F000934219D11E4B9B691D4A43F0040393611A
:102600001B4B9B6903F00403FB60FB684FF4006302
:102610003B6102237B610223FB6107F11003194632
:10262000144800F037FB1CE07B681B68124A934299
:1026300017D10F4B9B690E4A43F0080393610C4B73
:102640009B6903F00803BB60BB68C0233B610223A6
:102650007B610223FB6107F110031946074800F074
:1026600019FB00BF2037BD4680BD00BF002C0140D4
:10267000001002400008014000080040000C01402A
:1026800080B588B000AF786007F1100300221A60AF
:102690005A609A60DA607B681B681C4A934231D1A9
:1026A0001B4B9B691A4A43F480439361184B9B6907
:1026B00003F48043FB60FB68154B9B69144A43F0AD
:1026C00004039361124B9B6903F00403BB60BB6876
:1026D0004FF400733B6102237B610323FB6107F12D
:1026E000100319460B4800F0D5FA4FF480633B61A4
:1026F00000237B610023BB6107F1100319460548E5
:1027000000F0C8FA00BF2037BD4680BD0038014048
:10271000001002400008014080B400AFFEE780B422
:1027200000AFFEE780B400AFFEE780B400AFFEE785
:1027300080B400AFFEE780B400AF00BFBD4680BCF0
:10274000704780B400AF00BFBD4680BC704780B406
:1027500000AF00BFBD4680BC7047000080B500AF31
:10276000064B9B7A002B05D0044B1B8901339AB290
:10277000024B1A8100F048F900BF80BD1407002009
:1027800080B500AF082000F021FC00BF80BD80B5FF
:1027900000AF102000F01AFC00BF80BD80B500AF74
:1027A000202000F013FC402000F010FC00BF80BD92
:1027B00080B500AF024801F073FA00BF80BD00BFD2
:1027C0007007002080B500AF4FF4805000F0FEFB92
:1027D0004FF4005000F0FAFB00BF80BD80B400AFA2
:1027E00001231846BD4680BC704780B582B000AF5B
:1027F0007860396002F082FC034616221A604FF0BE
:10280000FF3318460837BD4680BD80B582B000AFA3
:1028100078604FF0FF317868FFF7E7FFFEE780B59B
:1028200086B000AFF860B9607A6000237B610AE08F
:10283000AFF300800146BB685A1CBA60CAB21A7076
:102840007B6901337B617A697B689A42F0DB7B6844
:1028500018461837BD4680BD80B483B000AF78609D
:102860004FF0FF3318460C37BD4680BC704780B42C
:1028700083B000AF786039603B684FF400525A6013
:10288000002318460C37BD4680BC704780B483B027
:1028900000AF7860012318460C37BD4680BC7047F6
:1028A00080B485B000AFF860B9607A600023184644
:1028B0001437BD4680BC704780B586B000AF7860E5
:1028C000144A154BD31A7B617B693B61134B1B6820
:1028D000002B02D1114B124A1A60104B1A687B6808
:1028E00013443A699A4207D202F008FC03460C22CC
:1028F0001A604FF0FF3309E0084B1B68FB60074B81
:102900001A687B681344054A1360FB681846183739
:10291000BD4680BD0050002000040000D408002007
:10292000F00B002080B400AF00BFBD4680BC7047F4
:10293000FFF7F8FF0B480C490C4A002302E0D4587B
:10294000C4500433C4188C42F9D3094A094C0023FB
:1029500001E013600432A242FBD302F0D5FBFEF784
:102960006BFF704700000020C406002018B7000865
:10297000C4060020F00B0020FEE7000080B500AF89
:10298000084B1B68074A43F010031360032000F054
:1029900023F90F2000F008F8FFF780FD0023184608
:1029A00080BD00BF0020024080B582B000AF7860DB
:1029B000124B1A68124B1B7819464FF47A73B3FB0B
:1029C000F1F3B2FBF3F3184600F03BF90346002B9A
:1029D00001D001230EE07B680F2B0AD80022796812
:1029E0004FF0FF3000F003F9064A7B6813600023C4
:1029F00000E0012318460837BD4680BD00000020D6
:102A0000080000200400002080B400AF054B1B78B4
:102A10001A46054B1B681344034A136000BFBD46AA
:102A200080BC704708000020D808002080B400AFA8
:102A3000024B1B681846BD4680BC7047D808002072
:102A400080B485B000AF78607B6803F00703FB605B
:102A50000C4BDB68BB60BA684FF6FF031340BB60EA
:102A6000FB681A02BB68134343F0BF6343F40033AF
:102A7000BB60044ABB68D36000BF1437BD4680BC4E
:102A8000704700BF00ED00E080B400AF044BDB688E
:102A90001B0A03F007031846BD4680BC704700BF01
:102AA00000ED00E080B483B000AF0346FB7197F9FE
:102AB0000730002B0BDBFB7903F01F02064997F967
:102AC00007305B09012000FA02F241F8232000BF21
:102AD0000C37BD4680BC704700E100E080B483B095
:102AE00000AF03463960FB7197F90730002B0ADB12
:102AF0003B68DAB20C4997F907301201D2B20B44A5
:102B000083F800230AE03B68DAB20849FB7903F056
:102B10000F03043B1201D2B20B441A7600BF0C37EC
:102B2000BD4680BC704700BF00E100E000ED00E062
:102B300080B489B000AFF860B9607A60FB6803F0D8
:102B40000703FB61FB69C3F10703042B28BF0423C0
:102B5000BB61FB690433062B02D9FB69033B00E030
:102B600000237B614FF0FF32BB6902FA03F3DA43C3
:102B7000BB681A407B699A404FF0FF317B6901FACC
:102B800003F3D9437B680B40134318462437BD46F3
:102B900080BC704780B582B000AF78607B68013B35
:102BA000B3F1807F01D301230FE00A4A7B68013B28
:102BB00053600F214FF0FF30FFF790FF054B0022CD
:102BC0009A60044B07221A60002318460837BD4656
:102BD00080BD00BF10E000E080B582B000AF78603B
:102BE0007868FFF72DFF00BF0837BD4680BD80B570
:102BF00086B000AF0346B9607A60FB7300237B6147
:102C0000FFF742FF78617A68B9687869FFF790FF4B
:102C1000024697F90F3011461846FFF75FFF00BFD5
:102C20001837BD4680BD80B582B000AF0346FB714A
:102C300097F907301846FFF735FF00BF0837BD4644
:102C400080BD80B582B000AF78607868FFF7A2FFE2
:102C5000034618460837BD4680BD000080B483B0E7
:102C600000AF78607B68042B06D1094B1B68084ACB
:102C700043F00403136005E0054B1B68044A23F08E
:102C80000403136000BF0C37BD4680BC704700BF13
:102C900010E000E080B48BB000AF786039600023B2
:102CA0007B6200233B6269E101227B6A02FA03F343
:102CB000FB613B681B68FA691340BB61BA69FB6939
:102CC0009A4240F058813B685B689A4A93425ED0D2
:102CD000984A934275D8984A934258D0964A93425C
:102CE0006FD8964A934252D0944A934269D8944AF4
:102CF00093424CD0924A934263D8924A934246D030
:102D0000904A93425DD8122B2AD8122B59D801A28F
:102D100052F823F08F2D0008692D00087B2D000844
:102D2000BD2D0008C32D0008C32D0008C32D0008C9
:102D3000C32D0008C32D0008C32D0008C32D0008B3
:102D4000C32D0008C32D0008C32D0008C32D0008A3
:102D5000C32D0008C32D0008712D0008852D000823
:102D6000794A934213D02CE03B68DB683B6229E050
:102D70003B68DB6804333B6224E03B68DB68083374
:102D80003B621FE03B68DB680C333B621AE03B6848
:102D90009B68002B02D104233B6213E03B689B68D5
:102DA000012B05D108233B627B68FA691A6109E0AF
:102DB00008233B627B68FA695A6103E000233B62A7
:102DC00000E000BFBB69FF2B01D87B6801E07B6896
:102DD00004337B61BB69FF2B02D87B6A9B0002E056
:102DE0007B6A083B9B003B617B691A680F213B694A
:102DF00001FA03F3DB431A40396A3B6901FA03F332
:102E00001A437B691A603B685B6803F08053002BB0
:102E100000F0B1804D4B9B694C4A43F00103936134
:102E20004A4B9B6903F00103BB60BB68484A7B6A5D
:102E30009B08023352F82330FB607B6A03F00303E4
:102E40009B000F2202FA03F3DB43FA681340FB6096
:102E50007B68404A934213D07B683F4A93420DD02F
:102E60007B683E4A934207D07B683D4A934201D13A
:102E7000032306E0042304E0022302E0012300E030
:102E800000237A6A02F0030292009340FA68134327
:102E9000FB602F497B6A9B080233FA6841F82320C4
:102EA0003B685B6803F48013002B06D02D4B9A68B7
:102EB0002C49BB6913438B6006E02A4B9A68BB69B7
:102EC000DB43284913408B603B685B6803F40013C5
:102ED000002B06D0234BDA682249BB691343CB6031
:102EE00006E0204BDA68BB69DB431E491340CB6028
:102EF0003B685B6803F40033002B06D0194B5A681B
:102F00001849BB6913434B6006E0164B5A68BB690E
:102F1000DB43144913404B603B685B6803F4803328
:102F2000002B21D00F4B1A680E49BB6913430B606D
:102F300021E000BF0000321000003110000022101C
:102F400000002110000012100000111000100240BB
:102F50000000014000080140000C01400010014049
:102F600000140140000401400B4B1A68BB69DB43AD
:102F7000094913400B607B6A01337B623B681A6826
:102F80007B6A22FA03F3002B7FF48EAE00BF00BFF2
:102F90002C37BD4680BC70470004014080B483B02C
:102FA00000AF78600B467B8013467B707B78002BEC
:102FB00003D07A887B681A6103E07B881A047B68F7
:102FC0001A6100BF0C37BD4680BC704780B582B027
:102FD00000AF0346FB80084B5A69FB881340002B67
:102FE00006D0054AFB885361FB881846FEF730FA85
:102FF00000BF0837BD4680BD0004014080B586B0E3
:1030000000AF78607B68002B01D1012372E27B68FE
:103010001B6803F00103002B00F08780924B5B6874
:1030200003F00C03042B0CD08F4B5B6803F00C03F4
:10303000082B12D18C4B5B6803F48033B3F5803FCF
:103040000BD1894B1B6803F40033002B6CD07B68D9
:103050005B68002B68D101234CE27B685B68B3F5A9
:10306000803F06D1804B1B687F4A43F48033136056
:103070002EE07B685B68002B0CD17B4B1B687A4A87
:1030800023F480331360784B1B68774A23F4802342
:1030900013601DE07B685B68B3F5A02F0CD1724B09
:1030A0001B68714A43F4802313606F4B1B686E4AA0
:1030B00043F4803313600BE06B4B1B686A4A23F4C4
:1030C00080331360684B1B68674A23F480231360C6
:1030D0007B685B68002B13D0FFF7A8FC386108E021
:1030E000FFF7A4FC02463B69D31A642B01D90323E2
:1030F00000E25D4B1B6803F40033002BF0D014E0BA
:10310000FFF794FC386108E0FFF790FC02463B694A
:10311000D31A642B01D90323ECE1534B1B6803F44E
:103120000033002BF0D100E000BF7B681B6803F088
:103130000203002B63D04C4B5B6803F00C03002BA5
:103140000BD0494B5B6803F00C03082B1CD1464B9A
:103150005B6803F48033002B16D1434B1B6803F0EC
:103160000203002B05D07B681B69012B01D00123D2
:10317000C0E13D4B1B6823F0F8027B685B69DB0014
:10318000394913430B603AE07B681B69002B20D060
:10319000364B01221A60FFF749FC386108E0FFF75F
:1031A00045FC02463B69D31A022B01D90323A1E156
:1031B0002D4B1B6803F00203002BF0D02A4B1B6839
:1031C00023F0F8027B685B69DB00274913430B603F
:1031D00015E0264B00221A60FFF728FC386108E052
:1031E000FFF724FC02463B69D31A022B01D90323C3
:1031F00080E11D4B1B6803F00203002BF0D17B68BC
:103200001B6803F00803002B3AD07B689B69002BF6
:1032100019D0174B01221A60FFF708FC386108E04B
:10322000FFF704FC02463B69D31A022B01D90323A2
:1032300060E10D4B5B6A03F00203002BF0D001202C
:1032400000F0CEFA1CE00A4B00221A60FFF7EEFBFA
:1032500038610FE0FFF7EAFB02463B69D31A022B05
:1032600008D9032346E100BF00100240000042429B
:1032700080044242924B5B6A03F00203002BE9D1C7
:103280007B681B6803F00403002B00F0A68000237A
:10329000FB758B4BDB6903F08053002B0DD1884B02
:1032A000DB69874A43F08053D361854BDB6903F0C8
:1032B0008053BB60BB680123FB75824B1B6803F422
:1032C0008073002B18D17F4B1B687E4A43F48073B8
:1032D0001360FFF7ABFB386108E0FFF7A7FB02467E
:1032E0003B69D31A642B01D9032303E1754B1B6897
:1032F00003F48073002BF0D07B68DB68012B06D1D0
:103300006F4B1B6A6E4A43F0010313622DE07B682A
:10331000DB68002B0CD16A4B1B6A694A23F001035E
:103320001362674B1B6A664A23F0040313621CE0B6
:103330007B68DB68052B0CD1614B1B6A604A43F04C
:10334000040313625E4B1B6A5D4A43F00103136280
:103350000BE05B4B1B6A5A4A23F001031362584B84
:103360001B6A574A23F0040313627B68DB68002B57
:1033700015D0FFF75BFB38610AE0FFF757FB024609
:103380003B69D31A41F28832934201D90323B1E059
:103390004B4B1B6A03F00203002BEED014E0FFF747
:1033A00045FB38610AE0FFF741FB02463B69D31A4F
:1033B00041F28832934201D903239BE0404B1B6AC0
:1033C00003F00203002BEED1FB7D012B05D13C4B1A
:1033D000DB693B4A23F08053D3617B68DB69002BB8
:1033E00000F08780364B5B6803F00C03082B61D03C
:1033F0007B68DB69022B46D1334B00221A60FFF752
:1034000015FB386108E0FFF711FB02463B69D31A50
:10341000022B01D903236DE0294B1B6803F00073D5
:10342000002BF0D17B681B6AB3F5803F08D1244B99
:103430005B6823F400327B689B68214913434B602F
:103440001F4B5B6823F474127B68196A7B685B6AA4
:103450000B431B4913434B601B4B01221A60FFF7C0
:10346000E5FA386108E0FFF7E1FA02463B69D31A52
:10347000022B01D903233DE0114B1B6803F00073BD
:10348000002BF0D035E0104B00221A60FFF7CEFA87
:10349000386108E0FFF7CAFA02463B69D31A022BEB
:1034A00001D9032326E0064B1B6803F00073002BB1
:1034B000F0D11EE07B68DB69012B07D1012319E005
:1034C0000010024000700040600042420B4B5B68FD
:1034D000FB60FB6803F480327B681B6A9A4206D16A
:1034E000FB6803F470127B685B6A9A4201D0012387
:1034F00000E0002318461837BD4680BD001002408A
:1035000080B584B000AF786039607B68002B01D152
:103510000123D0E06A4B1B6803F007033A689A4224
:1035200010D9674B1B6823F0070265493B681343BA
:103530000B60634B1B6803F007033A689A4201D0A3
:103540000123B8E07B681B6803F00203002B20D046
:103550007B681B6803F00403002B05D0594B5B68A4
:10356000584A43F4E06353607B681B6803F0080328
:10357000002B05D0534B5B68524A43F460535360B1
:10358000504B5B6823F0F0027B689B684D49134306
:103590004B607B681B6803F00103002B40D07B6805
:1035A0005B68012B07D1474B1B6803F40033002BEA
:1035B00015D101237FE07B685B68022B07D1414B6B
:1035C0001B6803F00073002B09D1012373E03D4B0E
:1035D0001B6803F00203002B01D101236BE0394B80
:1035E0005B6823F003027B685B68364913434B60DA
:1035F000FFF71CFAF8600AE0FFF718FA0246FB68CA
:10360000D31A41F28832934201D9032353E02D4B60
:103610005B6803F00C027B685B689B009A42EBD10D
:10362000274B1B6803F007033A689A4210D2244BD9
:103630001B6823F0070222493B6813430B60204BB1
:103640001B6803F007033A689A4201D0012332E075
:103650007B681B6803F00403002B08D0194B5B68E0
:1036600023F4E0627B68DB68164913434B607B6898
:103670001B6803F00803002B09D0124B5B6823F48E
:1036800060527B681B69DB000E4913434B6000F0FE
:1036900021F802460B4B5B681B0903F00F030A4934
:1036A000CB5C22FA03F3094A1360094B1B681846E6
:1036B000FFF77AF9002318461037BD4680BD00BFDA
:1036C0000020024000100240ECB200080000002080
:1036D0000400002080B487B000AF0023FB6000230B
:1036E000BB6000237B6100237B6000233B611E4B9A
:1036F0005B68FB60FB6803F00C03042B02D0082B13
:1037000003D027E0194B3B6127E0FB689B0C03F0DB
:103710000F03174AD35C7B60FB6803F48033002BF4
:1037200010D0114B5B685B0C03F00103114AD35CB2
:10373000BB607B680D4A03FB02F2BB68B2FBF3F38C
:103740007B6104E07B680C4A02FB03F37B617B69CD
:103750003B6102E0054B3B6100BF3B6918461C37EB
:10376000BD4680BC704700BF0010024000127A00C6
:1037700004B3000814B3000800093D0080B400AF92
:10378000024B1B681846BD4680BC704700000020F5
:1037900080B500AFFFF7F2FF0246054B5B681B0ADE
:1037A00003F007030349CB5C22FA03F3184680BDFC
:1037B00000100240FCB2000880B500AFFFF7DEFF4A
:1037C0000246054B5B68DB0A03F007030349CB5C49
:1037D00022FA03F3184680BD00100240FCB2000834
:1037E00080B485B000AF78600A4B1B680A4AA2FB20
:1037F00003235B0A7A6802FB03F3FB6000BFFB68EC
:103800005A1EFA60002BF9D100BF00BF1437BD4625
:1038100080BC704700000020D34D621080B582B09C
:1038200000AF78607B68002B01D1012341E07B6809
:1038300093F83D30DBB2002B06D17B68002283F881
:103840003C207868FEF78EFE7B68022283F83D20DC
:103850007B681A687B6804331946104600F0D6FC72
:103860007B68012283F846207B68012283F83E2092
:103870007B68012283F83F207B68012283F8402087
:103880007B68012283F841207B68012283F8422073
:103890007B68012283F843207B68012283F844205F
:1038A0007B68012283F845207B68012283F83D2054
:1038B000002318460837BD4680BD000080B485B09F
:1038C00000AF78607B6893F83D30DBB2012B01D00C
:1038D000012332E07B68022283F83D207B681B686D
:1038E000184A93420ED07B681B68B3F1804F09D011
:1038F0007B681B68144A934204D07B681B68134A98
:10390000934211D17B681B689B6803F00703FB603F
:10391000FB68062B10D07B681B681A687B681B68E5
:1039200042F001021A6007E07B681B681A687B6836
:103930001B6842F001021A60002318461437BD4686
:1039400080BC7047002C014000040040000800408B
:1039500080B485B000AF78607B6893F83D30DBB20F
:10396000012B01D001233AE07B68022283F83D203D
:103970007B681B68DA687B681B6842F00102DA60CA
:103980007B681B68184A93420ED07B681B68B3F1B2
:10399000804F09D07B681B68144A934204D07B682F
:1039A0001B68134A934211D17B681B689B6803F024
:1039B0000703FB60FB68062B10D07B681B681A6846
:1039C0007B681B6842F001021A6007E07B681B6895
:1039D0001A687B681B6842F001021A6000231846CF
:1039E0001437BD4680BC7047002C014000040040E5
:1039F0000008004080B582B000AF78607B68002B83
:103A000001D1012341E07B6893F83D30DBB2002B0C
:103A100006D17B68002283F83C207868FEF770FDB1
:103A20007B68022283F83D207B681A687B68043338
:103A30001946104600F0EAFB7B68012283F8462015
:103A40007B68012283F83E207B68012283F83F20B7
:103A50007B68012283F840207B68012283F84120A3
:103A60007B68012283F842207B68012283F843208F
:103A70007B68012283F844207B68012283F845207B
:103A80007B68012283F83D20002318460837BD4695
:103A900080BD000080B584B000AF786039603B68BD
:103AA000002B09D17B6893F83E30DBB2012B14BFA9
:103AB00001230023DBB222E03B68042B09D17B68A1
:103AC00093F83F30DBB2012B14BF01230023DBB29C
:103AD00015E03B68082B09D17B6893F84030DBB2D6
:103AE000012B14BF01230023DBB208E07B6893F8AD
:103AF0004130DBB2012B14BF01230023DBB2002BCA
:103B000001D001235EE03B68002B04D17B680222D8
:103B100083F83E2013E03B68042B04D17B6802222B
:103B200083F83F200BE03B68082B04D17B6802221E
:103B300083F8402003E07B68022283F841207B6801
:103B40001B6801223968184600F0E0FD7B681B689D
:103B50001E4A934207D17B681B685A6C7B681B68BE
:103B600042F400425A647B681B68184A93420ED0A4
:103B70007B681B68B3F1804F09D07B681B68144ACF
:103B8000934204D07B681B68124A934211D17B6830
:103B90001B689B6803F00703FB60FB68062B10D0D3
:103BA0007B681B681A687B681B6842F001021A6018
:103BB00007E07B681B681A687B681B6842F001029B
:103BC0001A60002318461037BD4680BD002C014006
:103BD000000400400008004080B582B000AF78606B
:103BE00039607B681B6800223968184600F08EFD3A
:103BF0007B681B68294A934217D17B681B681A6A45
:103C000041F211131340002B0FD17B681B681A6A15
:103C100040F244431340002B07D17B681B685A6C69
:103C20007B681B6822F400425A647B681B681A6A2E
:103C300041F211131340002B0FD17B681B681A6AE5
:103C400040F244431340002B07D17B681B681A687D
:103C50007B681B6822F001021A603B68002B04D1CC
:103C60007B68012283F83E2013E03B68042B04D1DB
:103C70007B68012283F83F200BE03B68082B04D1CE
:103C80007B68012283F8402003E07B68012283F8EF
:103C90004120002318460837BD4680BD002C014056
:103CA00080B582B000AF78607B681B681B6903F049
:103CB0000203022B22D17B681B68DB6803F002033E
:103CC000022B1BD17B681B686FF002021A617B68B4
:103CD00001221A777B681B689B6903F00303002BA2
:103CE00003D0786800F076FA05E0786800F069FAA9
:103CF000786800F078FA7B6800221A777B681B6886
:103D00001B6903F00403042B22D17B681B68DB686A
:103D100003F00403042B1BD17B681B686FF00402C3
:103D20001A617B6802221A777B681B689B6903F41F
:103D30004073002B03D0786800F04CFA05E07868F7
:103D400000F03FFA786800F04EFA7B6800221A779C
:103D50007B681B681B6903F00803082B22D17B6872
:103D60001B68DB6803F00803082B1BD17B681B680A
:103D70006FF008021A617B6804221A777B681B685F
:103D8000DB6903F00303002B03D0786800F022FA0C
:103D900005E0786800F015FA786800F024FA7B688E
:103DA00000221A777B681B681B6903F01003102B35
:103DB00022D17B681B68DB6803F01003102B1BD13A
:103DC0007B681B686FF010021A617B6808221A7703
:103DD0007B681B68DB6903F44073002B03D07868B1
:103DE00000F0F8F905E0786800F0EBF9786800F089
:103DF000FAF97B6800221A777B681B681B6903F05D
:103E00000103012B0ED17B681B68DB6803F0010303
:103E1000012B07D17B681B686FF001021A6178687B
:103E2000FEF774F97B681B681B6903F08003802B25
:103E30000ED17B681B68DB6803F08003802B07D101
:103E40007B681B686FF080021A61786800F03AFDA9
:103E50007B681B681B6903F04003402B0ED17B6815
:103E60001B68DB6803F04003402B07D17B681B68AD
:103E70006FF040021A61786800F0BEF97B681B6839
:103E80001B6903F02003202B0ED17B681B68DB68C5
:103E900003F02003202B07D17B681B686FF0200202
:103EA0001A61786800F005FD00BF0837BD4680BD87
:103EB00080B586B000AFF860B9607A600023FB750A
:103EC000FB6893F83C30012B01D10223AEE0FB6884
:103ED000012283F83C207B680C2B00F29F8001A21A
:103EE00052F823F0193F00081D4000081D4000084B
:103EF0001D400008593F00081D4000081D400008F3
:103F00001D4000089B3F00081D4000081D400008A0
:103F10001D400008DB3F0008FB681B68B9681846B5
:103F200000F0D6F9FB681B689A69FB681B6842F0D1
:103F300008029A61FB681B689A69FB681B6822F09B
:103F400004029A61FB681B689969BB681A69FB687F
:103F50001B680A439A6164E0FB681B68B9681846ED
:103F600000F01CFAFB681B689A69FB681B6842F446
:103F700000629A61FB681B689A69FB681B6822F4FF
:103F800080629A61FB681B689969BB681B691A02A9
:103F9000FB681B680A439A6143E0FB681B68B968C9
:103FA000184600F065FAFB681B68DA69FB681B6855
:103FB00042F00802DA61FB681B68DA69FB681B687B
:103FC00022F00402DA61FB681B68D969BB681A69D0
:103FD000FB681B680A43DA6123E0FB681B68B96869
:103FE000184600F0AFFAFB681B68DA69FB681B68CB
:103FF00042F40062DA61FB681B68DA69FB681B68DF
:1040000022F48062DA61FB681B68D969BB681B69AE
:104010001A02FB681B680A43DA6102E00123FB75A0
:1040200000BFFB68002283F83C20FB7D1846183750
:10403000BD4680BD80B584B000AF78603960002394
:10404000FB737B6893F83C30012B01D10223B4E071
:104050007B68012283F83C207B68022283F83D20A4
:104060007B681B689B68BB60BB6823F07703BB6001
:10407000BB6823F47F43BB607B681B68BA689A60A7
:104080003B681B68B3F5005F3ED0B3F5005F00F2FC
:104090008780B3F5805F00F08680B3F5805F7FD8BE
:1040A000702B1AD0702B7BD8602B50D0602B77D818
:1040B000502B3CD0502B73D8402B58D0402B6FD86E
:1040C000302B64D0302B6BD8202B60D0202B67D8BE
:1040D000002B5CD0102B5AD062E07B6818683B68DC
:1040E00099683B685A683B68DB6800F0F0FA7B68C7
:1040F0001B689B68BB60BB6843F07703BB607B6851
:104100001B68BA689A604FE07B6818683B689968DA
:104110003B685A683B68DB6800F0D9FA7B681B682B
:104120009A687B681B6842F480429A603CE07B6836
:1041300018683B6859683B68DB681A4600F050FA1B
:104140007B681B685021184600F0A7FA2CE07B68BA
:1041500018683B6859683B68DB681A4600F06EFADD
:104160007B681B686021184600F097FA1CE07B68AA
:1041700018683B6859683B68DB681A4600F030FAFB
:104180007B681B684021184600F087FA0CE07B68CA
:104190001A683B681B681946104600F07EFA03E077
:1041A0000123FB7300E000BF7B68012283F83D2000
:1041B0007B68002283F83C20FB7B18461037BD4605
:1041C00080BD80B483B000AF786000BF0C37BD46BF
:1041D00080BC704780B483B000AF786000BF0C37FC
:1041E000BD4680BC704780B483B000AF786000BF2C
:1041F0000C37BD4680BC704780B483B000AF786098
:1042000000BF0C37BD4680BC7047000080B485B04D
:1042100000AF786039607B681B68FB607B68294A67
:1042200093420BD07B68B3F1804F07D07B68264A5E
:10423000934203D07B68254A934208D1FB6823F060
:104240007003FB603B685B68FA681343FB607B6844
:104250001C4A93420BD07B68B3F1804F07D07B6838
:10426000194A934203D07B68184A934208D1FB68ED
:1042700023F44073FB603B68DB68FA681343FB6020
:10428000FB6823F080023B685B691343FB607B683B
:10429000FA681A603B689A687B68DA623B681A6859
:1042A0007B689A627B68074A934203D13B681A692C
:1042B0007B681A637B6801225A6100BF1437BD46D0
:1042C00080BC7047002C0140000400400008004002
:1042D00080B487B000AF786039607B681B6A7B610F
:1042E0007B681B6A23F001027B681A627B685B684B
:1042F0003B617B689B69FB60FB6823F07003FB609C
:10430000FB6823F00303FB603B681B68FA681343F8
:10431000FB607B6923F002037B613B689B687A69E1
:1043200013437B617B681C4A93420CD17B6923F069
:1043300008037B613B68DB687A6913437B617B69B7
:1043400023F004037B617B68134A934211D13B69DC
:1043500023F480733B613B6923F400733B613B684A
:104360005B693A6913433B613B689B693A69134354
:104370003B617B683A695A607B68FA689A613B687E
:104380005A687B685A637B687A691A6200BF1C3777
:10439000BD4680BC704700BF002C014080B487B090
:1043A00000AF786039607B681B6A7B617B681B6A41
:1043B00023F010027B681A627B685B683B617B6854
:1043C0009B69FB60FB6823F4E043FB60FB6823F41C
:1043D0004073FB603B681B681B02FA681343FB6079
:1043E0007B6923F020037B613B689B681B017A6932
:1043F00013437B617B681D4A93420DD17B6923F097
:1044000080037B613B68DB681B017A6913437B6136
:104410007B6923F040037B617B68144A934213D18C
:104420003B6923F480633B613B6923F400633B6198
:104430003B685B699B003A6913433B613B689B693E
:104440009B003A6913433B617B683A695A607B6819
:10445000FA689A613B685A687B689A637B687A69F4
:104460001A6200BF1C37BD4680BC7047002C01405B
:1044700080B487B000AF786039607B681B6A7B616D
:104480007B681B6A23F480727B681A627B685B68B6
:104490003B617B68DB69FB60FB6823F07003FB60BA
:1044A000FB6823F00303FB603B681B68FA68134357
:1044B000FB607B6923F400737B613B689B681B0294
:1044C0007A6913437B617B681D4A93420DD17B69F6
:1044D00023F400637B613B68DB681B027A6913434A
:1044E0007B617B6923F480637B617B68144A934220
:1044F00013D13B6923F480533B613B6923F40053A0
:104500003B613B685B691B013A6913433B613B6854
:104510009B691B013A6913433B617B683A695A60A6
:104520007B68FA68DA613B685A687B68DA637B68A3
:104530007A691A6200BF1C37BD4680BC704700BF55
:10454000002C014080B487B000AF786039607B6890
:104550001B6A3B617B681B6A23F480527B681A628A
:104560007B685B687B617B68DB69FB60FB6823F4CD
:10457000E043FB60FB6823F44073FB603B681B680F
:104580001B02FA681343FB603B6923F400533B6151
:104590003B689B681B033A6913433B617B680F4A86
:1045A000934209D17B6923F480437B613B685B695B
:1045B0009B017A6913437B617B687A695A607B68E7
:1045C000FA68DA613B685A687B681A647B683A6902
:1045D0001A6200BF1C37BD4680BC7047002C0140EA
:1045E00080B487B000AFF860B9607A60FB681B6A7E
:1045F0007B61FB681B6A23F00102FB681A62FB689F
:104600009B693B613B6923F0F0033B617B681B01C5
:104610003A6913433B617B6923F00A037B617A6942
:10462000BB6813437B61FB683A699A61FB687A69EE
:104630001A6200BF1C37BD4680BC704780B487B08B
:1046400000AFF860B9607A60FB681B6A7B61FB6849
:104650001B6A23F01002FB681A62FB689B693B61CE
:104660003B6923F470433B617B681B033A69134346
:104670003B617B6923F0A0037B61BB681B017A6906
:1046800013437B61FB683A699A61FB687A691A6235
:1046900000BF1C37BD4680BC704780B485B000AFFA
:1046A000786039607B689B68FB60FB6823F070036F
:1046B000FB603A68FB68134343F00703FB607B68C9
:1046C000FA689A6000BF1437BD4680BC704780B45A
:1046D00087B000AFF860B9607A603B60FB689B68A8
:1046E0007B617B6923F47F437B613B681A027B68B3
:1046F0001A43BB6813437A6913437B61FB687A6989
:104700009A6000BF1C37BD4680BC704780B487B03C
:1047100000AFF860B9607A60BB6803F01F03012244
:1047200002FA03F37B61FB681A6A7B69DB431A4078
:10473000FB681A62FB681A6ABB6803F01F0379689A
:1047400001FA03F31A43FB681A6200BF1C37BD4627
:1047500080BC704780B485B000AF786039607B68FA
:1047600093F83C30012B01D1022346E07B68012203
:1047700083F83C207B68022283F83D207B681B681D
:104780005B68FB607B681B689B68BB60FB6823F011
:104790007003FB603B681B68FA681343FB607B682F
:1047A0001B68FA685A607B681B68164A93420ED0F1
:1047B0007B681B68B3F1804F09D07B681B68124A85
:1047C000934204D07B681B68104A93420CD1BB68AB
:1047D00023F08003BB603B685B68BA681343BB602F
:1047E0007B681B68BA689A607B68012283F83D2069
:1047F0007B68002283F83C20002318461437BD460E
:1048000080BC7047002C01400004004000080040BC
:1048100080B485B000AF786039600023FB607B68AE
:1048200093F83C30012B01D102233DE07B6801224B
:1048300083F83C20FB6823F0FF023B68DB681343EE
:10484000FB60FB6823F440723B689B681343FB608A
:10485000FB6823F480623B685B681343FB60FB6882
:1048600023F400623B681B681343FB60FB6823F47E
:1048700080523B681B691343FB60FB6823F40052C2
:104880003B685B691343FB60FB6823F480423B6831
:10489000DB691343FB607B681B68FA685A647B68BA
:1048A000002283F83C20002318461437BD4680BC04
:1048B000704780B483B000AF786000BF0C37BD464E
:1048C00080BC704780B483B000AF786000BF0C3705
:1048D000BD4680BC704780B582B000AF78607B6811
:1048E000002B01D1012342E07B6893F84130DBB219
:1048F000002B06D17B68002283F840207868FDF702
:10490000BFFE7B68242283F841207B681B68DA683D
:104910007B681B6822F40052DA60786800F01CF9AA
:104920007B681B681A697B681B6822F490421A61D5
:104930007B681B685A697B681B6822F02A025A61EF
:104940007B681B68DA687B681B6842F40052DA6097
:104950007B6800225A647B68202283F841207B68B0
:10496000202283F842207B6800225A6300231846E5
:104970000837BD4680BD80B58AB002AFF860B96027
:104980003B601346FB8000237B61FB6893F841305A
:10499000DBB2202B6DD1BB68002B02D0FB88002B33
:1049A00001D1012366E0FB6800225A64FB682122E2
:1049B00083F84120FEF73AF87861FB68FA889A8418
:1049C000FB68FA88DA84FB689B68B3F5805F08D1DE
:1049D000FB681B69002B04D10023FB61BB68BB6132
:1049E00003E0BB68FB610023BB612AE03B680093E6
:1049F0007B6900228021F86800F040F80346002B14
:104A000001D0032336E0FB69002B0BD1BB691B8867
:104A10001A46FB681B68C2F308025A60BB6902337E
:104A2000BB6107E0FB691A78FB681B685A60FB6989
:104A30000133FB61FB68DB8C9BB2013B9AB2FB68E4
:104A4000DA84FB68DB8C9BB2002BCFD13B680093F0
:104A50007B6900224021F86800F010F80346002B23
:104A600001D0032306E0FB68202283F841200023C5
:104A700000E0022318462037BD4680BD80B590B0C7
:104A800000AFF860B9603B601346FB7150E0BB6C4F
:104A9000B3F1FF3F4CD0BB6C002B07D0FDF7C6FF36
:104AA00002463B68D31ABA6C9A4241D2FB681B6833
:104AB0000C33BB62BB6A53E8003F7B627B6A23F422
:104AC000D073FB63FB681B680C33FA6B7A633B6340
:104AD000396B7A6B41E80023FB62FB6A002BE5D15E
:104AE000FB681B6814337B617B6953E8003F3B61C3
:104AF0003B6923F00103BB63FB681B681433BA6B8B
:104B00003A62FB61F9693A6A41E80023BB61BB691B
:104B1000002BE5D1FB68202283F84120FB6820228E
:104B200083F84220FB68002283F8402003230FE033
:104B3000FB681B681A68BB681340BA689A420CBFCE
:104B400001230023DBB21A46FB799A429FD000234F
:104B500018464037BD4680BD80B584B000AF786050
:104B60007B681B681B6923F440517B68DA687B68AB
:104B70001B680A431A617B689A687B681B691A4341
:104B80007B685B691343BB607B681B68DB6823F44D
:104B9000B05323F00C037A681268B9680B43D360F2
:104BA0007B681B685B6923F440717B689A697B684A
:104BB0001B680A435A617B681B682C4A934203D1E5
:104BC000FEF7FAFDF86002E0FEF7E2FDF860FA6831
:104BD00013469B0013449A001A447B685B689B0051
:104BE000B2FBF3F3224AA2FB03235B091901FA6823
:104BF00013469B0013449A001A447B685B689B0031
:104C0000B2FBF3F21A4BA3FB02035B09642000FB27
:104C100003F3D31A1B013233154AA2FB03235B09AA
:104C200003F0F0031944FA6813469B0013449A00FA
:104C30001A447B685B689B00B2FBF3F20C4BA3FB4E
:104C400002035B09642000FB03F3D31A1B01323318
:104C5000074AA2FB03235B0903F00F027B681B6872
:104C60000A449A6000BF1037BD4680BD003801403D
:104C70001F85EB51024A0349034800F0C9B800BF41
:104C80000C000020B5870008200000200C4B416874
:104C900010B59942044601D003F08CFDA168094B80
:104CA000994202D0204603F085FDE168064B994207
:104CB00004D02046BDE8104003F07CBD10BD00BF0D
:104CC000DC08002044090020AC0900202DE9F8434D
:104CD00000250423304C314A3149DFF8C890DFF811
:104CE000C880324F324E116004F15C002946082220
:104CF000C4E90335C4E90055C4E90555A5606566F6
:104D000000F058F904F15800C4E90749C4E90987DB
:104D1000E66200F021FA274B2946082204F1C4007C
:104D20006367C4E91A55C4E91E552567C4F8CC5019
:104D3000C4F8805000F03EF904F1680304F1C000AB
:104D4000C4F88430C4E92298C4E9247600F004FA57
:104D5000194B294604F596700822C4F8DC30C4E9E2
:104D60003455C4E93855C4F8D850C4F83451C4F89F
:104D7000E85000F01FF904F1D003C4E93D87C4F8FE
:104D8000F09004F59470C4F8FC60C4F8EC30BDE811
:104D9000F84300F0E1B900BFDC080020140A00204D
:104DA000754C0008254F0008494F0008894F00083E
:104DB000AD4F0008090001001200020010B50446C2
:104DC0000A4800F0CDF9636B23B9094B094A1B6807
:104DD000626323B1BDE81040044800F0C3B9FFF797
:104DE00075FFBDE81040014800F0BCB9240A00205E
:104DF000140A00208D4C0008014800F0B1B900BF32
:104E0000240A0020014800F0ADB900BF240A0020A8
:104E10002DE9F8434FF0000980460F461646D6E9C3
:104E20000154013D10D4A389013D012B08D9B4F9E7
:104E30000E30013304D021464046B84749EA000904
:104E40006B1C04F16804EED13668002EE7D14846A9
:104E5000BDE8F8830FB400B5074A83B004AB10680F
:104E600053F8042B8168019300F0DAFD03B05DF87C
:104E700004EB04B0704700BF1800002030B50546B1
:104E800089B008460C4600F06FF901210223204A40
:104E9000049406926A6B04AC05900844019407914F
:104EA000AC6802930390002A2ED0626EB4F90C30E5
:104EB000D20701D4980521D5990406D4626E43F433
:104EC000005322F40052A3816266284601AA2146BB
:104ED00003F08EFD636E00280CBF0A254FF0FF35EE
:104EE000DA0702D4A3899B0502D5284609B030BD54
:104EF000A06D00F037F9284609B030BDA06D00F074
:104F00002FF9B4F90C30D7E72846FFF757FFCCE765
:104F100018B30008024B01461868FFF7AFBF00BF87
:104F20001800002010B50C46B1F90E1000F0BAF8C8
:104F3000002803DB236D0344236510BDA38923F4FC
:104F40008053A38110BD00BF2DE9F0410C46B1F99B
:104F50000C101F46CB05054616460BD421F4805194
:104F6000A1813B4632462846B4F90E10BDE8F04117
:104F700000F0AEB8B4F90E100223002200F07CF865
:104F8000B4F90C10EAE700BF10B50C46B1F90E10E9
:104F900000F072F8B4F90C30421C0EBF23F48053B9
:104FA00043F480532065A38110BD00BFB1F90E10FA
:104FB00000F050B870B5860747D0541E002A3ED086
:104FC0000346CAB201E0013C39D303F8012B9D0727
:104FD000F9D1032C2CD9CDB205EB05250F2C1A469F
:104FE00005EB054534D9A4F1100C2CF00F0603F1A4
:104FF000100EB6444FEA1C1C156055609560D560D4
:1050000010327245F8D10CF1010214F00C0F03EBD1
:10501000021204F00F0C13D0ACF1040323F00303CD
:105020000433134442F8045B9A42FBD10CF00304AE
:105030002CB1C9B21C4403F8011B9C42FBD170BDCA
:1050400064461346002CF4D1F9E703461446C0E742
:10505000A446E1E7002238B5064D044608462A601A
:10506000FDF7FAFB431C00D038BD2B68002BFBD0AA
:10507000236038BD180A002038B50C4611460022BE
:105080008446074D20462A601A466446FDF708FC10
:10509000431C00D038BD2B68002BFBD0236038BDEB
:1050A000180A002038B50C46114600228446074DE8
:1050B00020462A601A466446FDF7B1FB431C00D027
:1050C00038BD2B68002BFBD0236038BD180A0020A8
:1050D00038B50C46114600228446074D20462A600A
:1050E0001A466446FCF7BCFF431C00D038BD2B6851
:1050F000002BFBD0236038BD180A0020014B186834
:10510000704700BF1800002070B50F4B0F4DAB4229
:10511000A3EB050607D00024B61055F8043B013474
:105120009847A642F9D805F0F7FF094D094B5E1BD9
:10513000AB424FEAA60606D0002455F8043B0134E2
:105140009847A642F9D870BD0CB700080CB7000804
:105150000CB7000814B70008704700BF704700BFC5
:10516000704700BF704700BF20F0030110F003003C
:10517000C0F1000051F8043B00F1040C4FEACC0CE4
:105180006FF000021CBF22FA0CF213434FF0010C27
:105190004CEA0C2C4CEA0C4CA3EB0C0222EA030266
:1051A00012EACC1204BF51F8043B0430F4D0C2F12F
:1051B000000102EA0102B2FA82F2C2F11F0200EB20
:1051C000D2007047024B13B1024800F005B8704797
:1051D0000000000019900008002301461A461846F6
:1051E00003F0C0BF2DE9F84306460820894603F0C6
:1051F00027FF0546DFF89880304600F005FCD8F818
:1052000008305F6827F00307A7F11104A4EB090435
:105210002C44B4FBF5F4013C05FB04F4A54208DC86
:105220000021304603F0E6FED8F808303B449842AF
:1052300005D0304600F0EEFB0020BDE8F883304694
:10524000614203F0D7FE01300FD0124AD8F808307F
:105250003F1B47F001075F60136830461B1B13605C
:1052600000F0D8FB0120BDE8F8830021304603F0B0
:10527000C1FED8F80820831A0F2BDADD43F00103B2
:105280005360054B03491B68C01A0860D1E700BF93
:10529000500100202C0A00204401002000297CD06D
:1052A000F8B50C46064600F0AFFB54F8043C774FC7
:1052B000A4F1080523F001016818D7F808C0426876
:1052C000844522F0030200F08380DB07426000EB9C
:1052D000020C33D454F8084CDCF804302D1B214464
:1052E000AC6807F1080C644503F0010364D0D5F8FD
:1052F0000CE0C4F80CE0CEF80840002B00F08180F0
:1053000041F001036B600160B1F5007F22D2012200
:10531000CB0849098A40796801330A437A6057F813
:10532000331007EBC302083AC5E9021247F83350BD
:10533000CD603046BDE8F84000F06CBBDCF80430CE
:10534000DB072BD541F00103B1F5007F44F8043CA5
:105350000160DCD3B1F5206F4FEA512353D28B09A2
:1053600003F1390003F13802C300F818FB5808387C
:10537000984203D163E09B68984204D05A6822F0B7
:1053800003028A42F7D8D868C5E902308560304602
:10539000DD60BDE8F84000F03DBB7047114407F107
:1053A000080C836863453FD0C268DA60936041F0BF
:1053B00001036B606950A7E7002B61D10A44D0E973
:1053C0000213CB60996042F001036B60AA50B0E712
:1053D0000A44D90707D454F8083CED1A1A44D5E911
:1053E0000213CB60996042F001036B60284BBD60F3
:1053F0001B6893429DD8274B30461968FFF7F2FE91
:1054000097E71144CDE7142B08D9542B1FD80B0B69
:1054100003F16F0003F16E02C300A6E703F15C0025
:1054200003F15B02C300A0E741F001033D617D6130
:10543000C5F808C0C5F80CC06B60695079E7012158
:10544000921001FA02F279680A437A609CE7B3F598
:10545000AA7F06D8CB0B03F1780003F17702C300D3
:1054600083E740F25452934206D88B0C03F17D003F
:1054700003F17C02C30078E74FF47E737E2274E769
:1054800041F001036B60016053E700BF5001002051
:10549000480100205C0A00202DE9F04F01F10B05C6
:1054A000162D064683B024D8102900F2AA8000F0F9
:1054B000ABFA102518234FF0020CB74F3B445C6841
:1054C000A3F10802944200F0198130466368E26853
:1054D000A16823F00303CA60234491605A6808342A
:1054E00042F001025A6000F095FA204603B0BDE890
:1054F000F08F35F0070500F18480A94200F2818029
:1055000000F082FAB5F5FC7FC0F06F816B0A7CD0A9
:10551000042B00F21B81AB0903F1390C03F1380EA7
:105520004FEACC009C4F384444680838A04207D169
:105530000DE0002AE16880F2DB80884207D00C464B
:10554000636823F003035A1B0F2AF2DDF446DFF8E9
:105550004C823C69444500F0B980636823F0030E37
:10556000AEEB05030F2B00F34581002BC7E9048840
:1055700080F22F81BEF5007F786880F0C68001231D
:105580004FEADE014FEA5E1E194403FA0EF357F8A4
:105590003120184307EBC103083BA260E360786049
:1055A00047F83140D46001214FEAAC039940814271
:1055B00032D8014206D12CF0030C490001420CF113
:1055C000040CFAD007EBCC0A5046E146D0F80CE0C8
:1055D0000DE0DEF80420744622F00302531B0F2B6B
:1055E000DEF80CE000F3BF80002B80F2E380704512
:1055F000EFD109F1010919F0030F00F10800E5D11D
:1056000024E10C23336000246FE74FF400704FF067
:10561000400C4FF03F0E85E7BC68636823F0030938
:10562000A94503D3A9EB05030F2B51DC5C4B0820E4
:105630001B6803F1100803F003FD5A4A04EB090349
:105640000093136883460133A84405D008F1FF385E
:105650008044434203EA08084146304603F0CAFC4E
:10566000B0F1FF3F82464F4A00F0E18004EB0903AE
:10567000834200F2DA804C4B0BF1FF311868404452
:105680008446186040F000811AEA010F40F0FC8067
:10569000D7F808A0C84448F00102CAF804205446CC
:1056A000424B1968814238BF1860414B19688142EA
:1056B00038BF186022F00308A845A8EB050301D302
:1056C0000F2B05DC304600F0A5F99CE778686AE707
:1056D000621943F0010345F0010565603046BA6088
:1056E0000834536000F096F9204603B0BDE8F08F0F
:1056F000A2683046D16023448A60EFE6DC68A342AA
:105700007FF4E3AE0CF1020C21E7BEF5206F4FEA07
:105710005E22C0F08380142A00F2178102F15C033C
:10572000DB005B32F918FB580839994203D1F3E0EA
:105730009B68994204D05A6822F003027245F7D858
:10574000D968C4E902318C60DC602CE7142B71D974
:10575000542B00F203812B0B03F16F0C03F16E0E3F
:105760004FEACC00DEE66119304645F00105A66837
:10577000656043F00105C6F80CE0CEF80860C7E9A3
:105780000411C1F80880C1F80C804D60A35000F0EE
:1057900041F90834A9E600BF50010020580100205B
:1057A0005C0A0020440100202C0A0020580A002036
:1057B000540A002022445368304643F001035360EA
:1057C00054F8083FC3F80CE0CEF8083000F022F996
:1057D0008BE6A644DEF80430304643F00103CEF8F1
:1057E000043000F017F908347FE64FEAD50C05F1D4
:1057F000080362E6621943F0010145F001056560A6
:105800003046C7E90422C2F80880C2F80C80516013
:1058100044F80E3000F0FEF8083466E64FEA9E12B7
:1058200002F13903DB0038327CE7BC4224D0BC688B
:1058300062683FE703F15C0C03F15B0E4FEACC00BA
:1058400070E65AF80839534540F0D9801CF0030F30
:105850000CF1FF3CF5D17B6823EA01037B60490032
:1058600099423FF6D9AE19B9D6E6490009F10409C3
:105870001942FAD0CC46A5E6624B0BF1FF3118680D
:1058800008EB000CC3F800C01068013071D004EBC5
:105890000902AAEB020262441A601AF00702CDE97B
:1058A000002341D0C2F108029244D04408EA01002A
:1058B0005A44121A02EA010B5946304603F09AFB89
:1058C000421C019B72D0A0EB0A0000EB0B08186889
:1058D00048F001025844BC42C7F808A01860CAF852
:1058E00004203FF4DCAEB9F10F0F45D94FF0050CA1
:1058F0006168A9F10C0222F0070201F001011143D5
:1059000061600F2A04EB0201C1F804C0C1F808C0AD
:1059100054D8DAF80420C2E64FF0010E92100EFAC5
:1059200002F2104378600CE70AEB08020A40ABEB86
:10593000020202EA010B5946304603F05BFB431CAE
:10594000019BC0D1DDF800B0C1E7542A18D84FEA56
:105950001E3202F16F03DB006E32E3E6B3F5AA7F7D
:1059600018D8EB0B03F1780C03F1770E4FEACC005B
:10597000D8E5C2F800A090E70123CAF80430A1E6F8
:10598000B2F5AA7F25D84FEADE3202F17803DB00B8
:105990007732C7E640F25452934225D8AB0C03F15C
:1059A0007D0C03F17C0E4FEACC00BBE5009A4FF072
:1059B000000B083A9044A8EB0A0888E7304604F147
:1059C00008010093FFF76AFC009BD7F808A018684D
:1059D0009FE740F254539A420DD84FEA9E4202F19B
:1059E0007D03DB007C329DE64FF47E704FF07F0C30
:1059F0004FF07E0E96E54FF47E737E2292E67B6832
:105A00002DE700BF2C0A00200148FFF7A9BB00BF0B
:105A10001C0A00200148FFF7A5BB00BF1C0A00209C
:105A20002DE9F04FDDB091461C460891834603F006
:105A3000DDFA03680E9418461993FFF795FB0346A9
:105A4000082200212CA81893FFF7B4FABBF1000F2D
:105A500004D0DBF83430002B01F08C80089B5A6EA8
:105A6000B3F90C30D10702D49A0540F1B8869F04EF
:105A700007D4089943F400534A6E8B8122F40052F4
:105A80004A661E0740F1C780089A1269002A00F092
:105A9000C28003F01A020A2A00F0CC8000230024FE
:105AA0009E46CDE93133002333AA9046CDE9143424
:105AB000CDE91AEECDE91CEE3092CDF85CE0CDF8E0
:105AC0002CE0CDF848E0CDF824B0CDF81890069E33
:105AD000099D894B2CAFD3F8E44003F081FA32469C
